{
	"data": {
		"bytecode": {
			"linkReferences": {},
			"object": "608060405260015f55670de0b6b3a7640000600155633b9aca00600255600154600254602a91906072565b6003553480156037575f80fd5b50609b565b5f819050919050565b7f4e487b71000000000000000000000000000000000000000000000000000000005f52601260045260245ffd5b5f607a82603c565b9150608383603c565b925082609057608f6045565b5b828204905092915050565b61012a806100a85f395ff3fe6080604052348015600e575f80fd5b50600436106044575f3560e01c80631da0425b1460485780638f201fe1146062578063c2169c1a14607c578063d1feb342146096575b5f80fd5b604e60b0565b6040516059919060dd565b60405180910390f35b606860b6565b6040516073919060dd565b60405180910390f35b608260bc565b604051608d919060dd565b60405180910390f35b609c60c2565b60405160a7919060dd565b60405180910390f35b60015481565b60025481565b60035481565b5f5481565b5f819050919050565b60d78160c7565b82525050565b5f60208201905060ee5f83018460d0565b9291505056fea26469706673582212205560a695da8e113ff46f9ddd0f37bbf5fdef2e706a98b43a9a747a4304ae53cc64736f6c634300081a0033",
			"opcodes": "PUSH1 0x80 PUSH1 0x40 MSTORE PUSH1 0x1 PUSH0 SSTORE PUSH8 0xDE0B6B3A7640000 PUSH1 0x1 SSTORE PUSH4 0x3B9ACA00 PUSH1 0x2 SSTORE PUSH1 0x1 SLOAD PUSH1 0x2 SLOAD PUSH1 0x2A SWAP2 SWAP1 PUSH1 0x72 JUMP JUMPDEST PUSH1 0x3 SSTORE CALLVALUE DUP1 ISZERO PUSH1 0x37 JUMPI PUSH0 DUP1 REVERT JUMPDEST POP PUSH1 0x9B JUMP JUMPDEST PUSH0 DUP2 SWAP1 POP SWAP2 SWAP1 POP JUMP JUMPDEST PUSH32 0x4E487B7100000000000000000000000000000000000000000000000000000000 PUSH0 MSTORE PUSH1 0x12 PUSH1 0x4 MSTORE PUSH1 0x24 PUSH0 REVERT JUMPDEST PUSH0 PUSH1 0x7A DUP3 PUSH1 0x3C JUMP JUMPDEST SWAP2 POP PUSH1 0x83 DUP4 PUSH1 0x3C JUMP JUMPDEST SWAP3 POP DUP3 PUSH1 0x90 JUMPI PUSH1 0x8F PUSH1 0x45 JUMP JUMPDEST JUMPDEST DUP3 DUP3 DIV SWAP1 POP SWAP3 SWAP2 POP POP JUMP JUMPDEST PUSH2 0x12A DUP1 PUSH2 0xA8 PUSH0 CODECOPY PUSH0 RETURN INVALID PUSH1 0x80 PUSH1 0x40 MSTORE CALLVALUE DUP1 ISZERO PUSH1 0xE JUMPI PUSH0 DUP1 REVERT JUMPDEST POP PUSH1 0x4 CALLDATASIZE LT PUSH1 0x44 JUMPI PUSH0 CALLDATALOAD PUSH1 0xE0 SHR DUP1 PUSH4 0x1DA0425B EQ PUSH1 0x48 JUMPI DUP1 PUSH4 0x8F201FE1 EQ PUSH1 0x62 JUMPI DUP1 PUSH4 0xC2169C1A EQ PUSH1 0x7C JUMPI DUP1 PUSH4 0xD1FEB342 EQ PUSH1 0x96 JUMPI JUMPDEST PUSH0 DUP1 REVERT JUMPDEST PUSH1 0x4E PUSH1 0xB0 JUMP JUMPDEST PUSH1 0x40 MLOAD PUSH1 0x59 SWAP2 SWAP1 PUSH1 0xDD JUMP JUMPDEST PUSH1 0x40 MLOAD DUP1 SWAP2 SUB SWAP1 RETURN JUMPDEST PUSH1 0x68 PUSH1 0xB6 JUMP JUMPDEST PUSH1 0x40 MLOAD PUSH1 0x73 SWAP2 SWAP1 PUSH1 0xDD JUMP JUMPDEST PUSH1 0x40 MLOAD DUP1 SWAP2 SUB SWAP1 RETURN JUMPDEST PUSH1 0x82 PUSH1 0xBC JUMP JUMPDEST PUSH1 0x40 MLOAD PUSH1 0x8D SWAP2 SWAP1 PUSH1 0xDD JUMP JUMPDEST PUSH1 0x40 MLOAD DUP1 SWAP2 SUB SWAP1 RETURN JUMPDEST PUSH1 0x9C PUSH1 0xC2 JUMP JUMPDEST PUSH1 0x40 MLOAD PUSH1 0xA7 SWAP2 SWAP1 PUSH1 0xDD JUMP JUMPDEST PUSH1 0x40 MLOAD DUP1 SWAP2 SUB SWAP1 RETURN JUMPDEST PUSH1 0x1 SLOAD DUP2 JUMP JUMPDEST PUSH1 0x2 SLOAD DUP2 JUMP JUMPDEST PUSH1 0x3 SLOAD DUP2 JUMP JUMPDEST PUSH0 SLOAD DUP2 JUMP JUMPDEST PUSH0 DUP2 SWAP1 POP SWAP2 SWAP1 POP JUMP JUMPDEST PUSH1 0xD7 DUP2 PUSH1 0xC7 JUMP JUMPDEST DUP3 MSTORE POP POP JUMP JUMPDEST PUSH0 PUSH1 0x20 DUP3 ADD SWAP1 POP PUSH1 0xEE PUSH0 DUP4 ADD DUP5 PUSH1 0xD0 JUMP JUMPDEST SWAP3 SWAP2 POP POP JUMP INVALID LOG2 PUSH5 0x6970667358 0x22 SLT KECCAK256 SSTORE PUSH1 0xA6 SWAP6 0xDA DUP15 GT EXTCODEHASH DELEGATECALL PUSH16 0x9DDD0F37BBF5FDEF2E706A98B43A9A74 PUSH27 0x4304AE53CC64736F6C634300081A00330000000000000000000000 "
		},
		"gasEstimates": {
			"creation": {
				"codeDepositCost": "59600",
				"executionCost": "infinite",
				"totalCost": "infinite"
			},
			"external": {
				"gg()": "2447",
				"numEth()": "2403",
				"numGwei()": "2425",
				"numWei()": "2468"
			}
		},
		"methodIdentifiers": {
			"gg()": "c2169c1a",
			"numEth()": "1da0425b",
			"numGwei()": "8f201fe1",
			"numWei()": "d1feb342"
		}
	},
	"abi": [
		{
			"inputs": [],
			"name": "gg",
			"outputs": [
				{
					"internalType": "uint256",
					"name": "",
					"type": "uint256"
				}
			],
			"stateMutability": "view",
			"type": "function"
		},
		{
			"inputs": [],
			"name": "numEth",
			"outputs": [
				{
					"internalType": "uint256",
					"name": "",
					"type": "uint256"
				}
			],
			"stateMutability": "view",
			"type": "function"
		},
		{
			"inputs": [],
			"name": "numGwei",
			"outputs": [
				{
					"internalType": "uint256",
					"name": "",
					"type": "uint256"
				}
			],
			"stateMutability": "view",
			"type": "function"
		},
		{
			"inputs": [],
			"name": "numWei",
			"outputs": [
				{
					"internalType": "uint256",
					"name": "",
					"type": "uint256"
				}
			],
			"stateMutability": "view",
			"type": "function"
		}
	]
}