{
	"contracts/solidity_by_example/017Struct.sol": {
		"StutdentsStruct": {
			"abi": [
				{
					"inputs": [
						{
							"internalType": "string",
							"name": "_name",
							"type": "string"
						},
						{
							"internalType": "uint256",
							"name": "_grade",
							"type": "uint256"
						},
						{
							"internalType": "bool",
							"name": "_pass",
							"type": "bool"
						}
					],
					"name": "set",
					"outputs": [],
					"stateMutability": "nonpayable",
					"type": "function"
				},
				{
					"inputs": [
						{
							"internalType": "uint256",
							"name": "",
							"type": "uint256"
						}
					],
					"name": "stu",
					"outputs": [
						{
							"internalType": "string",
							"name": "name",
							"type": "string"
						},
						{
							"internalType": "uint256",
							"name": "grade",
							"type": "uint256"
						},
						{
							"internalType": "bool",
							"name": "pass",
							"type": "bool"
						}
					],
					"stateMutability": "view",
					"type": "function"
				},
				{
					"inputs": [
						{
							"internalType": "uint256",
							"name": "_index",
							"type": "uint256"
						},
						{
							"internalType": "string",
							"name": "_name",
							"type": "string"
						}
					],
					"name": "updateName",
					"outputs": [],
					"stateMutability": "nonpayable",
					"type": "function"
				}
			],
			"devdoc": {
				"kind": "dev",
				"methods": {},
				"version": 1
			},
			"evm": {
				"assembly": "    /* \"contracts/solidity_by_example/017Struct.sol\":94:1423  contract StutdentsStruct{... */\n  mstore(0x40, 0x80)\n  callvalue\n  dup1\n  iszero\n  tag_1\n  jumpi\n  0x00\n  dup1\n  revert\ntag_1:\n  pop\n  dataSize(sub_0)\n  dup1\n  dataOffset(sub_0)\n  0x00\n  codecopy\n  0x00\n  return\nstop\n\nsub_0: assembly {\n        /* \"contracts/solidity_by_example/017Struct.sol\":94:1423  contract StutdentsStruct{... */\n      mstore(0x40, 0x80)\n      callvalue\n      dup1\n      iszero\n      tag_1\n      jumpi\n      0x00\n      dup1\n      revert\n    tag_1:\n      pop\n      jumpi(tag_2, lt(calldatasize, 0x04))\n      shr(0xe0, calldataload(0x00))\n      dup1\n      0x53e76f2c\n      eq\n      tag_3\n      jumpi\n      dup1\n      0x8c53f85f\n      eq\n      tag_4\n      jumpi\n      dup1\n      0xa6551d4b\n      eq\n      tag_5\n      jumpi\n    tag_2:\n      0x00\n      dup1\n      revert\n        /* \"contracts/solidity_by_example/017Struct.sol\":1108:1414  function updateName(uint _index, string calldata _name) public {... */\n    tag_3:\n      tag_6\n      0x04\n      dup1\n      calldatasize\n      sub\n      dup2\n      add\n      swap1\n      tag_7\n      swap2\n      swap1\n      tag_8\n      jump\t// in\n    tag_7:\n      tag_9\n      jump\t// in\n    tag_6:\n      stop\n        /* \"contracts/solidity_by_example/017Struct.sol\":364:384  Student[] public stu */\n    tag_4:\n      tag_10\n      0x04\n      dup1\n      calldatasize\n      sub\n      dup2\n      add\n      swap1\n      tag_11\n      swap2\n      swap1\n      tag_12\n      jump\t// in\n    tag_11:\n      tag_13\n      jump\t// in\n    tag_10:\n      mload(0x40)\n      tag_14\n      swap4\n      swap3\n      swap2\n      swap1\n      tag_15\n      jump\t// in\n    tag_14:\n      mload(0x40)\n      dup1\n      swap2\n      sub\n      swap1\n      return\n        /* \"contracts/solidity_by_example/017Struct.sol\":393:1100  function set(string calldata _name, uint _grade, bool _pass) public {   //calldata表示这个属性不可在合约中修改，只能可读... */\n    tag_5:\n      tag_16\n      0x04\n      dup1\n      calldatasize\n      sub\n      dup2\n      add\n      swap1\n      tag_17\n      swap2\n      swap1\n      tag_18\n      jump\t// in\n    tag_17:\n      tag_19\n      jump\t// in\n    tag_16:\n      stop\n        /* \"contracts/solidity_by_example/017Struct.sol\":1108:1414  function updateName(uint _index, string calldata _name) public {... */\n    tag_9:\n        /* \"contracts/solidity_by_example/017Struct.sol\":1182:1204  Student storage newStu */\n      0x00\n        /* \"contracts/solidity_by_example/017Struct.sol\":1207:1210  stu */\n      dup1\n        /* \"contracts/solidity_by_example/017Struct.sol\":1211:1217  _index */\n      dup5\n        /* \"contracts/solidity_by_example/017Struct.sol\":1207:1218  stu[_index] */\n      dup2\n      sload\n      dup2\n      lt\n      tag_21\n      jumpi\n      tag_22\n      tag_23\n      jump\t// in\n    tag_22:\n    tag_21:\n      swap1\n      0x00\n      mstore\n      keccak256(0x00, 0x20)\n      swap1\n      0x03\n      mul\n      add\n        /* \"contracts/solidity_by_example/017Struct.sol\":1182:1218  Student storage newStu = stu[_index] */\n      swap1\n      pop\n        /* \"contracts/solidity_by_example/017Struct.sol\":1401:1406  _name */\n      dup3\n      dup3\n        /* \"contracts/solidity_by_example/017Struct.sol\":1387:1393  newStu */\n      dup3\n        /* \"contracts/solidity_by_example/017Struct.sol\":1387:1398  newStu.name */\n      0x00\n      add\n        /* \"contracts/solidity_by_example/017Struct.sol\":1387:1406  newStu.name = _name */\n      swap2\n      dup3\n      tag_25\n      swap3\n      swap2\n      swap1\n      tag_26\n      jump\t// in\n    tag_25:\n      pop\n        /* \"contracts/solidity_by_example/017Struct.sol\":1171:1414  {... */\n      pop\n        /* \"contracts/solidity_by_example/017Struct.sol\":1108:1414  function updateName(uint _index, string calldata _name) public {... */\n      pop\n      pop\n      pop\n      jump\t// out\n        /* \"contracts/solidity_by_example/017Struct.sol\":364:384  Student[] public stu */\n    tag_13:\n      0x00\n      dup2\n      dup2\n      sload\n      dup2\n      lt\n      tag_27\n      jumpi\n      0x00\n      dup1\n      revert\n    tag_27:\n      swap1\n      0x00\n      mstore\n      keccak256(0x00, 0x20)\n      swap1\n      0x03\n      mul\n      add\n      0x00\n      swap2\n      pop\n      swap1\n      pop\n      dup1\n      0x00\n      add\n      dup1\n      sload\n      tag_29\n      swap1\n      tag_30\n      jump\t// in\n    tag_29:\n      dup1\n      0x1f\n      add\n      0x20\n      dup1\n      swap2\n      div\n      mul\n      0x20\n      add\n      mload(0x40)\n      swap1\n      dup2\n      add\n      0x40\n      mstore\n      dup1\n      swap3\n      swap2\n      swap1\n      dup2\n      dup2\n      mstore\n      0x20\n      add\n      dup3\n      dup1\n      sload\n      tag_31\n      swap1\n      tag_30\n      jump\t// in\n    tag_31:\n      dup1\n      iszero\n      tag_32\n      jumpi\n      dup1\n      0x1f\n      lt\n      tag_33\n      jumpi\n      0x0100\n      dup1\n      dup4\n      sload\n      div\n      mul\n      dup4\n      mstore\n      swap2\n      0x20\n      add\n      swap2\n      jump(tag_32)\n    tag_33:\n      dup3\n      add\n      swap2\n      swap1\n      0x00\n      mstore\n      keccak256(0x00, 0x20)\n      swap1\n    tag_34:\n      dup2\n      sload\n      dup2\n      mstore\n      swap1\n      0x01\n      add\n      swap1\n      0x20\n      add\n      dup1\n      dup4\n      gt\n      tag_34\n      jumpi\n      dup3\n      swap1\n      sub\n      0x1f\n      and\n      dup3\n      add\n      swap2\n    tag_32:\n      pop\n      pop\n      pop\n      pop\n      pop\n      swap1\n      dup1\n      0x01\n      add\n      sload\n      swap1\n      dup1\n      0x02\n      add\n      0x00\n      swap1\n      sload\n      swap1\n      0x0100\n      exp\n      swap1\n      div\n      0xff\n      and\n      swap1\n      pop\n      dup4\n      jump\t// out\n        /* \"contracts/solidity_by_example/017Struct.sol\":393:1100  function set(string calldata _name, uint _grade, bool _pass) public {   //calldata表示这个属性不可在合约中修改，只能可读... */\n    tag_19:\n        /* \"contracts/solidity_by_example/017Struct.sol\":955:975  Student memory myStu */\n      tag_36\n      tag_37\n      jump\t// in\n    tag_36:\n        /* \"contracts/solidity_by_example/017Struct.sol\":999:1004  _name */\n      dup5\n      dup5\n        /* \"contracts/solidity_by_example/017Struct.sol\":986:1004  myStu.name = _name */\n      dup1\n      dup1\n      0x1f\n      add\n      0x20\n      dup1\n      swap2\n      div\n      mul\n      0x20\n      add\n      mload(0x40)\n      swap1\n      dup2\n      add\n      0x40\n      mstore\n      dup1\n      swap4\n      swap3\n      swap2\n      swap1\n      dup2\n      dup2\n      mstore\n      0x20\n      add\n      dup4\n      dup4\n      dup1\n      dup3\n      dup5\n      calldatacopy\n      0x00\n      dup2\n      dup5\n      add\n      mstore\n      not(0x1f)\n      0x1f\n      dup3\n      add\n      and\n      swap1\n      pop\n      dup1\n      dup4\n      add\n      swap3\n      pop\n      pop\n      pop\n      pop\n      pop\n      pop\n      pop\n        /* \"contracts/solidity_by_example/017Struct.sol\":986:991  myStu */\n      dup2\n        /* \"contracts/solidity_by_example/017Struct.sol\":986:996  myStu.name */\n      0x00\n      add\n        /* \"contracts/solidity_by_example/017Struct.sol\":986:1004  myStu.name = _name */\n      dup2\n      swap1\n      mstore\n      pop\n        /* \"contracts/solidity_by_example/017Struct.sol\":1029:1035  _grade */\n      dup3\n        /* \"contracts/solidity_by_example/017Struct.sol\":1015:1020  myStu */\n      dup2\n        /* \"contracts/solidity_by_example/017Struct.sol\":1015:1026  myStu.grade */\n      0x20\n      add\n        /* \"contracts/solidity_by_example/017Struct.sol\":1015:1035  myStu.grade = _grade */\n      dup2\n      dup2\n      mstore\n      pop\n      pop\n        /* \"contracts/solidity_by_example/017Struct.sol\":1059:1064  _pass */\n      dup2\n        /* \"contracts/solidity_by_example/017Struct.sol\":1046:1051  myStu */\n      dup2\n        /* \"contracts/solidity_by_example/017Struct.sol\":1046:1056  myStu.pass */\n      0x40\n      add\n        /* \"contracts/solidity_by_example/017Struct.sol\":1046:1064  myStu.pass = _pass */\n      swap1\n      iszero\n      iszero\n      swap1\n      dup2\n      iszero\n      iszero\n      dup2\n      mstore\n      pop\n      pop\n        /* \"contracts/solidity_by_example/017Struct.sol\":1075:1078  stu */\n      0x00\n        /* \"contracts/solidity_by_example/017Struct.sol\":1084:1089  myStu */\n      dup2\n        /* \"contracts/solidity_by_example/017Struct.sol\":1075:1090  stu.push(myStu) */\n      swap1\n      dup1\n      0x01\n      dup2\n      sload\n      add\n      dup1\n      dup3\n      sstore\n      dup1\n      swap2\n      pop\n      pop\n      0x01\n      swap1\n      sub\n      swap1\n      0x00\n      mstore\n      keccak256(0x00, 0x20)\n      swap1\n      0x03\n      mul\n      add\n      0x00\n      swap1\n      swap2\n      swap1\n      swap2\n      swap1\n      swap2\n      pop\n      0x00\n      dup3\n      add\n      mload\n      dup2\n      0x00\n      add\n      swap1\n      dup2\n      tag_39\n      swap2\n      swap1\n      tag_40\n      jump\t// in\n    tag_39:\n      pop\n      0x20\n      dup3\n      add\n      mload\n      dup2\n      0x01\n      add\n      sstore\n      0x40\n      dup3\n      add\n      mload\n      dup2\n      0x02\n      add\n      exp(0x0100, 0x00)\n      dup2\n      sload\n      dup2\n      0xff\n      mul\n      not\n      and\n      swap1\n      dup4\n      iszero\n      iszero\n      mul\n      or\n      swap1\n      sstore\n      pop\n      pop\n      pop\n        /* \"contracts/solidity_by_example/017Struct.sol\":461:1100  {   //calldata表示这个属性不可在合约中修改，只能可读... */\n      pop\n        /* \"contracts/solidity_by_example/017Struct.sol\":393:1100  function set(string calldata _name, uint _grade, bool _pass) public {   //calldata表示这个属性不可在合约中修改，只能可读... */\n      pop\n      pop\n      pop\n      pop\n      jump\t// out\n    tag_37:\n      mload(0x40)\n      dup1\n      0x60\n      add\n      0x40\n      mstore\n      dup1\n      0x60\n      dup2\n      mstore\n      0x20\n      add\n      0x00\n      dup2\n      mstore\n      0x20\n      add\n      iszero(iszero(0x00))\n      dup2\n      mstore\n      pop\n      swap1\n      jump\t// out\n        /* \"#utility.yul\":88:205   */\n    tag_42:\n        /* \"#utility.yul\":197:198   */\n      0x00\n        /* \"#utility.yul\":194:195   */\n      dup1\n        /* \"#utility.yul\":187:199   */\n      revert\n        /* \"#utility.yul\":211:328   */\n    tag_43:\n        /* \"#utility.yul\":320:321   */\n      0x00\n        /* \"#utility.yul\":317:318   */\n      dup1\n        /* \"#utility.yul\":310:322   */\n      revert\n        /* \"#utility.yul\":334:411   */\n    tag_44:\n        /* \"#utility.yul\":371:378   */\n      0x00\n        /* \"#utility.yul\":400:405   */\n      dup2\n        /* \"#utility.yul\":389:405   */\n      swap1\n      pop\n        /* \"#utility.yul\":334:411   */\n      swap2\n      swap1\n      pop\n      jump\t// out\n        /* \"#utility.yul\":417:539   */\n    tag_45:\n        /* \"#utility.yul\":490:514   */\n      tag_85\n        /* \"#utility.yul\":508:513   */\n      dup2\n        /* \"#utility.yul\":490:514   */\n      tag_44\n      jump\t// in\n    tag_85:\n        /* \"#utility.yul\":483:488   */\n      dup2\n        /* \"#utility.yul\":480:515   */\n      eq\n        /* \"#utility.yul\":470:533   */\n      tag_86\n      jumpi\n        /* \"#utility.yul\":529:530   */\n      0x00\n        /* \"#utility.yul\":526:527   */\n      dup1\n        /* \"#utility.yul\":519:531   */\n      revert\n        /* \"#utility.yul\":470:533   */\n    tag_86:\n        /* \"#utility.yul\":417:539   */\n      pop\n      jump\t// out\n        /* \"#utility.yul\":545:684   */\n    tag_46:\n        /* \"#utility.yul\":591:596   */\n      0x00\n        /* \"#utility.yul\":629:635   */\n      dup2\n        /* \"#utility.yul\":616:636   */\n      calldataload\n        /* \"#utility.yul\":607:636   */\n      swap1\n      pop\n        /* \"#utility.yul\":645:678   */\n      tag_88\n        /* \"#utility.yul\":672:677   */\n      dup2\n        /* \"#utility.yul\":645:678   */\n      tag_45\n      jump\t// in\n    tag_88:\n        /* \"#utility.yul\":545:684   */\n      swap3\n      swap2\n      pop\n      pop\n      jump\t// out\n        /* \"#utility.yul\":690:807   */\n    tag_47:\n        /* \"#utility.yul\":799:800   */\n      0x00\n        /* \"#utility.yul\":796:797   */\n      dup1\n        /* \"#utility.yul\":789:801   */\n      revert\n        /* \"#utility.yul\":813:930   */\n    tag_48:\n        /* \"#utility.yul\":922:923   */\n      0x00\n        /* \"#utility.yul\":919:920   */\n      dup1\n        /* \"#utility.yul\":912:924   */\n      revert\n        /* \"#utility.yul\":936:1053   */\n    tag_49:\n        /* \"#utility.yul\":1045:1046   */\n      0x00\n        /* \"#utility.yul\":1042:1043   */\n      dup1\n        /* \"#utility.yul\":1035:1047   */\n      revert\n        /* \"#utility.yul\":1073:1626   */\n    tag_50:\n        /* \"#utility.yul\":1131:1139   */\n      0x00\n        /* \"#utility.yul\":1141:1147   */\n      dup1\n        /* \"#utility.yul\":1191:1194   */\n      dup4\n        /* \"#utility.yul\":1184:1188   */\n      0x1f\n        /* \"#utility.yul\":1176:1182   */\n      dup5\n        /* \"#utility.yul\":1172:1189   */\n      add\n        /* \"#utility.yul\":1168:1195   */\n      slt\n        /* \"#utility.yul\":1158:1280   */\n      tag_93\n      jumpi\n        /* \"#utility.yul\":1199:1278   */\n      tag_94\n      tag_47\n      jump\t// in\n    tag_94:\n        /* \"#utility.yul\":1158:1280   */\n    tag_93:\n        /* \"#utility.yul\":1312:1318   */\n      dup3\n        /* \"#utility.yul\":1299:1319   */\n      calldataload\n        /* \"#utility.yul\":1289:1319   */\n      swap1\n      pop\n        /* \"#utility.yul\":1342:1360   */\n      0xffffffffffffffff\n        /* \"#utility.yul\":1334:1340   */\n      dup2\n        /* \"#utility.yul\":1331:1361   */\n      gt\n        /* \"#utility.yul\":1328:1445   */\n      iszero\n      tag_95\n      jumpi\n        /* \"#utility.yul\":1364:1443   */\n      tag_96\n      tag_48\n      jump\t// in\n    tag_96:\n        /* \"#utility.yul\":1328:1445   */\n    tag_95:\n        /* \"#utility.yul\":1478:1482   */\n      0x20\n        /* \"#utility.yul\":1470:1476   */\n      dup4\n        /* \"#utility.yul\":1466:1483   */\n      add\n        /* \"#utility.yul\":1454:1483   */\n      swap2\n      pop\n        /* \"#utility.yul\":1532:1535   */\n      dup4\n        /* \"#utility.yul\":1524:1528   */\n      0x01\n        /* \"#utility.yul\":1516:1522   */\n      dup3\n        /* \"#utility.yul\":1512:1529   */\n      mul\n        /* \"#utility.yul\":1502:1510   */\n      dup4\n        /* \"#utility.yul\":1498:1530   */\n      add\n        /* \"#utility.yul\":1495:1536   */\n      gt\n        /* \"#utility.yul\":1492:1620   */\n      iszero\n      tag_97\n      jumpi\n        /* \"#utility.yul\":1539:1618   */\n      tag_98\n      tag_49\n      jump\t// in\n    tag_98:\n        /* \"#utility.yul\":1492:1620   */\n    tag_97:\n        /* \"#utility.yul\":1073:1626   */\n      swap3\n      pop\n      swap3\n      swap1\n      pop\n      jump\t// out\n        /* \"#utility.yul\":1632:2306   */\n    tag_8:\n        /* \"#utility.yul\":1712:1718   */\n      0x00\n        /* \"#utility.yul\":1720:1726   */\n      dup1\n        /* \"#utility.yul\":1728:1734   */\n      0x00\n        /* \"#utility.yul\":1777:1779   */\n      0x40\n        /* \"#utility.yul\":1765:1774   */\n      dup5\n        /* \"#utility.yul\":1756:1763   */\n      dup7\n        /* \"#utility.yul\":1752:1775   */\n      sub\n        /* \"#utility.yul\":1748:1780   */\n      slt\n        /* \"#utility.yul\":1745:1864   */\n      iszero\n      tag_100\n      jumpi\n        /* \"#utility.yul\":1783:1862   */\n      tag_101\n      tag_42\n      jump\t// in\n    tag_101:\n        /* \"#utility.yul\":1745:1864   */\n    tag_100:\n        /* \"#utility.yul\":1903:1904   */\n      0x00\n        /* \"#utility.yul\":1928:1981   */\n      tag_102\n        /* \"#utility.yul\":1973:1980   */\n      dup7\n        /* \"#utility.yul\":1964:1970   */\n      dup3\n        /* \"#utility.yul\":1953:1962   */\n      dup8\n        /* \"#utility.yul\":1949:1971   */\n      add\n        /* \"#utility.yul\":1928:1981   */\n      tag_46\n      jump\t// in\n    tag_102:\n        /* \"#utility.yul\":1918:1981   */\n      swap4\n      pop\n        /* \"#utility.yul\":1874:1991   */\n      pop\n        /* \"#utility.yul\":2058:2060   */\n      0x20\n        /* \"#utility.yul\":2047:2056   */\n      dup5\n        /* \"#utility.yul\":2043:2061   */\n      add\n        /* \"#utility.yul\":2030:2062   */\n      calldataload\n        /* \"#utility.yul\":2089:2107   */\n      0xffffffffffffffff\n        /* \"#utility.yul\":2081:2087   */\n      dup2\n        /* \"#utility.yul\":2078:2108   */\n      gt\n        /* \"#utility.yul\":2075:2192   */\n      iszero\n      tag_103\n      jumpi\n        /* \"#utility.yul\":2111:2190   */\n      tag_104\n      tag_43\n      jump\t// in\n    tag_104:\n        /* \"#utility.yul\":2075:2192   */\n    tag_103:\n        /* \"#utility.yul\":2224:2289   */\n      tag_105\n        /* \"#utility.yul\":2281:2288   */\n      dup7\n        /* \"#utility.yul\":2272:2278   */\n      dup3\n        /* \"#utility.yul\":2261:2270   */\n      dup8\n        /* \"#utility.yul\":2257:2279   */\n      add\n        /* \"#utility.yul\":2224:2289   */\n      tag_50\n      jump\t// in\n    tag_105:\n        /* \"#utility.yul\":2206:2289   */\n      swap3\n      pop\n      swap3\n      pop\n        /* \"#utility.yul\":2001:2299   */\n      pop\n        /* \"#utility.yul\":1632:2306   */\n      swap3\n      pop\n      swap3\n      pop\n      swap3\n      jump\t// out\n        /* \"#utility.yul\":2312:2641   */\n    tag_12:\n        /* \"#utility.yul\":2371:2377   */\n      0x00\n        /* \"#utility.yul\":2420:2422   */\n      0x20\n        /* \"#utility.yul\":2408:2417   */\n      dup3\n        /* \"#utility.yul\":2399:2406   */\n      dup5\n        /* \"#utility.yul\":2395:2418   */\n      sub\n        /* \"#utility.yul\":2391:2423   */\n      slt\n        /* \"#utility.yul\":2388:2507   */\n      iszero\n      tag_107\n      jumpi\n        /* \"#utility.yul\":2426:2505   */\n      tag_108\n      tag_42\n      jump\t// in\n    tag_108:\n        /* \"#utility.yul\":2388:2507   */\n    tag_107:\n        /* \"#utility.yul\":2546:2547   */\n      0x00\n        /* \"#utility.yul\":2571:2624   */\n      tag_109\n        /* \"#utility.yul\":2616:2623   */\n      dup5\n        /* \"#utility.yul\":2607:2613   */\n      dup3\n        /* \"#utility.yul\":2596:2605   */\n      dup6\n        /* \"#utility.yul\":2592:2614   */\n      add\n        /* \"#utility.yul\":2571:2624   */\n      tag_46\n      jump\t// in\n    tag_109:\n        /* \"#utility.yul\":2561:2624   */\n      swap2\n      pop\n        /* \"#utility.yul\":2517:2634   */\n      pop\n        /* \"#utility.yul\":2312:2641   */\n      swap3\n      swap2\n      pop\n      pop\n      jump\t// out\n        /* \"#utility.yul\":2647:2746   */\n    tag_51:\n        /* \"#utility.yul\":2699:2705   */\n      0x00\n        /* \"#utility.yul\":2733:2738   */\n      dup2\n        /* \"#utility.yul\":2727:2739   */\n      mload\n        /* \"#utility.yul\":2717:2739   */\n      swap1\n      pop\n        /* \"#utility.yul\":2647:2746   */\n      swap2\n      swap1\n      pop\n      jump\t// out\n        /* \"#utility.yul\":2752:2921   */\n    tag_52:\n        /* \"#utility.yul\":2836:2847   */\n      0x00\n        /* \"#utility.yul\":2870:2876   */\n      dup3\n        /* \"#utility.yul\":2865:2868   */\n      dup3\n        /* \"#utility.yul\":2858:2877   */\n      mstore\n        /* \"#utility.yul\":2910:2914   */\n      0x20\n        /* \"#utility.yul\":2905:2908   */\n      dup3\n        /* \"#utility.yul\":2901:2915   */\n      add\n        /* \"#utility.yul\":2886:2915   */\n      swap1\n      pop\n        /* \"#utility.yul\":2752:2921   */\n      swap3\n      swap2\n      pop\n      pop\n      jump\t// out\n        /* \"#utility.yul\":2927:3066   */\n    tag_53:\n        /* \"#utility.yul\":3016:3022   */\n      dup3\n        /* \"#utility.yul\":3011:3014   */\n      dup2\n        /* \"#utility.yul\":3006:3009   */\n      dup4\n        /* \"#utility.yul\":3000:3023   */\n      mcopy\n        /* \"#utility.yul\":3057:3058   */\n      0x00\n        /* \"#utility.yul\":3048:3054   */\n      dup4\n        /* \"#utility.yul\":3043:3046   */\n      dup4\n        /* \"#utility.yul\":3039:3055   */\n      add\n        /* \"#utility.yul\":3032:3059   */\n      mstore\n        /* \"#utility.yul\":2927:3066   */\n      pop\n      pop\n      pop\n      jump\t// out\n        /* \"#utility.yul\":3072:3174   */\n    tag_54:\n        /* \"#utility.yul\":3113:3119   */\n      0x00\n        /* \"#utility.yul\":3164:3166   */\n      0x1f\n        /* \"#utility.yul\":3160:3167   */\n      not\n        /* \"#utility.yul\":3155:3157   */\n      0x1f\n        /* \"#utility.yul\":3148:3153   */\n      dup4\n        /* \"#utility.yul\":3144:3158   */\n      add\n        /* \"#utility.yul\":3140:3168   */\n      and\n        /* \"#utility.yul\":3130:3168   */\n      swap1\n      pop\n        /* \"#utility.yul\":3072:3174   */\n      swap2\n      swap1\n      pop\n      jump\t// out\n        /* \"#utility.yul\":3180:3557   */\n    tag_55:\n        /* \"#utility.yul\":3268:3271   */\n      0x00\n        /* \"#utility.yul\":3296:3335   */\n      tag_115\n        /* \"#utility.yul\":3329:3334   */\n      dup3\n        /* \"#utility.yul\":3296:3335   */\n      tag_51\n      jump\t// in\n    tag_115:\n        /* \"#utility.yul\":3351:3422   */\n      tag_116\n        /* \"#utility.yul\":3415:3421   */\n      dup2\n        /* \"#utility.yul\":3410:3413   */\n      dup6\n        /* \"#utility.yul\":3351:3422   */\n      tag_52\n      jump\t// in\n    tag_116:\n        /* \"#utility.yul\":3344:3422   */\n      swap4\n      pop\n        /* \"#utility.yul\":3431:3496   */\n      tag_117\n        /* \"#utility.yul\":3489:3495   */\n      dup2\n        /* \"#utility.yul\":3484:3487   */\n      dup6\n        /* \"#utility.yul\":3477:3481   */\n      0x20\n        /* \"#utility.yul\":3470:3475   */\n      dup7\n        /* \"#utility.yul\":3466:3482   */\n      add\n        /* \"#utility.yul\":3431:3496   */\n      tag_53\n      jump\t// in\n    tag_117:\n        /* \"#utility.yul\":3521:3550   */\n      tag_118\n        /* \"#utility.yul\":3543:3549   */\n      dup2\n        /* \"#utility.yul\":3521:3550   */\n      tag_54\n      jump\t// in\n    tag_118:\n        /* \"#utility.yul\":3516:3519   */\n      dup5\n        /* \"#utility.yul\":3512:3551   */\n      add\n        /* \"#utility.yul\":3505:3551   */\n      swap2\n      pop\n        /* \"#utility.yul\":3272:3557   */\n      pop\n        /* \"#utility.yul\":3180:3557   */\n      swap3\n      swap2\n      pop\n      pop\n      jump\t// out\n        /* \"#utility.yul\":3563:3681   */\n    tag_56:\n        /* \"#utility.yul\":3650:3674   */\n      tag_120\n        /* \"#utility.yul\":3668:3673   */\n      dup2\n        /* \"#utility.yul\":3650:3674   */\n      tag_44\n      jump\t// in\n    tag_120:\n        /* \"#utility.yul\":3645:3648   */\n      dup3\n        /* \"#utility.yul\":3638:3675   */\n      mstore\n        /* \"#utility.yul\":3563:3681   */\n      pop\n      pop\n      jump\t// out\n        /* \"#utility.yul\":3687:3777   */\n    tag_57:\n        /* \"#utility.yul\":3721:3728   */\n      0x00\n        /* \"#utility.yul\":3764:3769   */\n      dup2\n        /* \"#utility.yul\":3757:3770   */\n      iszero\n        /* \"#utility.yul\":3750:3771   */\n      iszero\n        /* \"#utility.yul\":3739:3771   */\n      swap1\n      pop\n        /* \"#utility.yul\":3687:3777   */\n      swap2\n      swap1\n      pop\n      jump\t// out\n        /* \"#utility.yul\":3783:3892   */\n    tag_58:\n        /* \"#utility.yul\":3864:3885   */\n      tag_123\n        /* \"#utility.yul\":3879:3884   */\n      dup2\n        /* \"#utility.yul\":3864:3885   */\n      tag_57\n      jump\t// in\n    tag_123:\n        /* \"#utility.yul\":3859:3862   */\n      dup3\n        /* \"#utility.yul\":3852:3886   */\n      mstore\n        /* \"#utility.yul\":3783:3892   */\n      pop\n      pop\n      jump\t// out\n        /* \"#utility.yul\":3898:4419   */\n    tag_15:\n        /* \"#utility.yul\":4061:4065   */\n      0x00\n        /* \"#utility.yul\":4099:4101   */\n      0x60\n        /* \"#utility.yul\":4088:4097   */\n      dup3\n        /* \"#utility.yul\":4084:4102   */\n      add\n        /* \"#utility.yul\":4076:4102   */\n      swap1\n      pop\n        /* \"#utility.yul\":4148:4157   */\n      dup2\n        /* \"#utility.yul\":4142:4146   */\n      dup2\n        /* \"#utility.yul\":4138:4158   */\n      sub\n        /* \"#utility.yul\":4134:4135   */\n      0x00\n        /* \"#utility.yul\":4123:4132   */\n      dup4\n        /* \"#utility.yul\":4119:4136   */\n      add\n        /* \"#utility.yul\":4112:4159   */\n      mstore\n        /* \"#utility.yul\":4176:4254   */\n      tag_125\n        /* \"#utility.yul\":4249:4253   */\n      dup2\n        /* \"#utility.yul\":4240:4246   */\n      dup7\n        /* \"#utility.yul\":4176:4254   */\n      tag_55\n      jump\t// in\n    tag_125:\n        /* \"#utility.yul\":4168:4254   */\n      swap1\n      pop\n        /* \"#utility.yul\":4264:4336   */\n      tag_126\n        /* \"#utility.yul\":4332:4334   */\n      0x20\n        /* \"#utility.yul\":4321:4330   */\n      dup4\n        /* \"#utility.yul\":4317:4335   */\n      add\n        /* \"#utility.yul\":4308:4314   */\n      dup6\n        /* \"#utility.yul\":4264:4336   */\n      tag_56\n      jump\t// in\n    tag_126:\n        /* \"#utility.yul\":4346:4412   */\n      tag_127\n        /* \"#utility.yul\":4408:4410   */\n      0x40\n        /* \"#utility.yul\":4397:4406   */\n      dup4\n        /* \"#utility.yul\":4393:4411   */\n      add\n        /* \"#utility.yul\":4384:4390   */\n      dup5\n        /* \"#utility.yul\":4346:4412   */\n      tag_58\n      jump\t// in\n    tag_127:\n        /* \"#utility.yul\":3898:4419   */\n      swap5\n      swap4\n      pop\n      pop\n      pop\n      pop\n      jump\t// out\n        /* \"#utility.yul\":4425:4541   */\n    tag_59:\n        /* \"#utility.yul\":4495:4516   */\n      tag_129\n        /* \"#utility.yul\":4510:4515   */\n      dup2\n        /* \"#utility.yul\":4495:4516   */\n      tag_57\n      jump\t// in\n    tag_129:\n        /* \"#utility.yul\":4488:4493   */\n      dup2\n        /* \"#utility.yul\":4485:4517   */\n      eq\n        /* \"#utility.yul\":4475:4535   */\n      tag_130\n      jumpi\n        /* \"#utility.yul\":4531:4532   */\n      0x00\n        /* \"#utility.yul\":4528:4529   */\n      dup1\n        /* \"#utility.yul\":4521:4533   */\n      revert\n        /* \"#utility.yul\":4475:4535   */\n    tag_130:\n        /* \"#utility.yul\":4425:4541   */\n      pop\n      jump\t// out\n        /* \"#utility.yul\":4547:4680   */\n    tag_60:\n        /* \"#utility.yul\":4590:4595   */\n      0x00\n        /* \"#utility.yul\":4628:4634   */\n      dup2\n        /* \"#utility.yul\":4615:4635   */\n      calldataload\n        /* \"#utility.yul\":4606:4635   */\n      swap1\n      pop\n        /* \"#utility.yul\":4644:4674   */\n      tag_132\n        /* \"#utility.yul\":4668:4673   */\n      dup2\n        /* \"#utility.yul\":4644:4674   */\n      tag_59\n      jump\t// in\n    tag_132:\n        /* \"#utility.yul\":4547:4680   */\n      swap3\n      swap2\n      pop\n      pop\n      jump\t// out\n        /* \"#utility.yul\":4686:5499   */\n    tag_18:\n        /* \"#utility.yul\":4772:4778   */\n      0x00\n        /* \"#utility.yul\":4780:4786   */\n      dup1\n        /* \"#utility.yul\":4788:4794   */\n      0x00\n        /* \"#utility.yul\":4796:4802   */\n      dup1\n        /* \"#utility.yul\":4845:4847   */\n      0x60\n        /* \"#utility.yul\":4833:4842   */\n      dup6\n        /* \"#utility.yul\":4824:4831   */\n      dup8\n        /* \"#utility.yul\":4820:4843   */\n      sub\n        /* \"#utility.yul\":4816:4848   */\n      slt\n        /* \"#utility.yul\":4813:4932   */\n      iszero\n      tag_134\n      jumpi\n        /* \"#utility.yul\":4851:4930   */\n      tag_135\n      tag_42\n      jump\t// in\n    tag_135:\n        /* \"#utility.yul\":4813:4932   */\n    tag_134:\n        /* \"#utility.yul\":4999:5000   */\n      0x00\n        /* \"#utility.yul\":4988:4997   */\n      dup6\n        /* \"#utility.yul\":4984:5001   */\n      add\n        /* \"#utility.yul\":4971:5002   */\n      calldataload\n        /* \"#utility.yul\":5029:5047   */\n      0xffffffffffffffff\n        /* \"#utility.yul\":5021:5027   */\n      dup2\n        /* \"#utility.yul\":5018:5048   */\n      gt\n        /* \"#utility.yul\":5015:5132   */\n      iszero\n      tag_136\n      jumpi\n        /* \"#utility.yul\":5051:5130   */\n      tag_137\n      tag_43\n      jump\t// in\n    tag_137:\n        /* \"#utility.yul\":5015:5132   */\n    tag_136:\n        /* \"#utility.yul\":5164:5229   */\n      tag_138\n        /* \"#utility.yul\":5221:5228   */\n      dup8\n        /* \"#utility.yul\":5212:5218   */\n      dup3\n        /* \"#utility.yul\":5201:5210   */\n      dup9\n        /* \"#utility.yul\":5197:5219   */\n      add\n        /* \"#utility.yul\":5164:5229   */\n      tag_50\n      jump\t// in\n    tag_138:\n        /* \"#utility.yul\":5146:5229   */\n      swap5\n      pop\n      swap5\n      pop\n        /* \"#utility.yul\":4942:5239   */\n      pop\n        /* \"#utility.yul\":5278:5280   */\n      0x20\n        /* \"#utility.yul\":5304:5357   */\n      tag_139\n        /* \"#utility.yul\":5349:5356   */\n      dup8\n        /* \"#utility.yul\":5340:5346   */\n      dup3\n        /* \"#utility.yul\":5329:5338   */\n      dup9\n        /* \"#utility.yul\":5325:5347   */\n      add\n        /* \"#utility.yul\":5304:5357   */\n      tag_46\n      jump\t// in\n    tag_139:\n        /* \"#utility.yul\":5294:5357   */\n      swap3\n      pop\n        /* \"#utility.yul\":5249:5367   */\n      pop\n        /* \"#utility.yul\":5406:5408   */\n      0x40\n        /* \"#utility.yul\":5432:5482   */\n      tag_140\n        /* \"#utility.yul\":5474:5481   */\n      dup8\n        /* \"#utility.yul\":5465:5471   */\n      dup3\n        /* \"#utility.yul\":5454:5463   */\n      dup9\n        /* \"#utility.yul\":5450:5472   */\n      add\n        /* \"#utility.yul\":5432:5482   */\n      tag_60\n      jump\t// in\n    tag_140:\n        /* \"#utility.yul\":5422:5482   */\n      swap2\n      pop\n        /* \"#utility.yul\":5377:5492   */\n      pop\n        /* \"#utility.yul\":4686:5499   */\n      swap3\n      swap6\n      swap2\n      swap5\n      pop\n      swap3\n      pop\n      jump\t// out\n        /* \"#utility.yul\":5505:5685   */\n    tag_23:\n        /* \"#utility.yul\":5553:5630   */\n      0x4e487b7100000000000000000000000000000000000000000000000000000000\n        /* \"#utility.yul\":5550:5551   */\n      0x00\n        /* \"#utility.yul\":5543:5631   */\n      mstore\n        /* \"#utility.yul\":5650:5654   */\n      0x32\n        /* \"#utility.yul\":5647:5648   */\n      0x04\n        /* \"#utility.yul\":5640:5655   */\n      mstore\n        /* \"#utility.yul\":5674:5678   */\n      0x24\n        /* \"#utility.yul\":5671:5672   */\n      0x00\n        /* \"#utility.yul\":5664:5679   */\n      revert\n        /* \"#utility.yul\":5691:5788   */\n    tag_61:\n        /* \"#utility.yul\":5750:5756   */\n      0x00\n        /* \"#utility.yul\":5778:5781   */\n      dup3\n        /* \"#utility.yul\":5768:5781   */\n      swap1\n      pop\n        /* \"#utility.yul\":5691:5788   */\n      swap3\n      swap2\n      pop\n      pop\n      jump\t// out\n        /* \"#utility.yul\":5794:5974   */\n    tag_62:\n        /* \"#utility.yul\":5842:5919   */\n      0x4e487b7100000000000000000000000000000000000000000000000000000000\n        /* \"#utility.yul\":5839:5840   */\n      0x00\n        /* \"#utility.yul\":5832:5920   */\n      mstore\n        /* \"#utility.yul\":5939:5943   */\n      0x41\n        /* \"#utility.yul\":5936:5937   */\n      0x04\n        /* \"#utility.yul\":5929:5944   */\n      mstore\n        /* \"#utility.yul\":5963:5967   */\n      0x24\n        /* \"#utility.yul\":5960:5961   */\n      0x00\n        /* \"#utility.yul\":5953:5968   */\n      revert\n        /* \"#utility.yul\":5980:6160   */\n    tag_63:\n        /* \"#utility.yul\":6028:6105   */\n      0x4e487b7100000000000000000000000000000000000000000000000000000000\n        /* \"#utility.yul\":6025:6026   */\n      0x00\n        /* \"#utility.yul\":6018:6106   */\n      mstore\n        /* \"#utility.yul\":6125:6129   */\n      0x22\n        /* \"#utility.yul\":6122:6123   */\n      0x04\n        /* \"#utility.yul\":6115:6130   */\n      mstore\n        /* \"#utility.yul\":6149:6153   */\n      0x24\n        /* \"#utility.yul\":6146:6147   */\n      0x00\n        /* \"#utility.yul\":6139:6154   */\n      revert\n        /* \"#utility.yul\":6166:6486   */\n    tag_30:\n        /* \"#utility.yul\":6210:6216   */\n      0x00\n        /* \"#utility.yul\":6247:6248   */\n      0x02\n        /* \"#utility.yul\":6241:6245   */\n      dup3\n        /* \"#utility.yul\":6237:6249   */\n      div\n        /* \"#utility.yul\":6227:6249   */\n      swap1\n      pop\n        /* \"#utility.yul\":6294:6295   */\n      0x01\n        /* \"#utility.yul\":6288:6292   */\n      dup3\n        /* \"#utility.yul\":6284:6296   */\n      and\n        /* \"#utility.yul\":6315:6333   */\n      dup1\n        /* \"#utility.yul\":6305:6386   */\n      tag_146\n      jumpi\n        /* \"#utility.yul\":6371:6375   */\n      0x7f\n        /* \"#utility.yul\":6363:6369   */\n      dup3\n        /* \"#utility.yul\":6359:6376   */\n      and\n        /* \"#utility.yul\":6349:6376   */\n      swap2\n      pop\n        /* \"#utility.yul\":6305:6386   */\n    tag_146:\n        /* \"#utility.yul\":6433:6435   */\n      0x20\n        /* \"#utility.yul\":6425:6431   */\n      dup3\n        /* \"#utility.yul\":6422:6436   */\n      lt\n        /* \"#utility.yul\":6402:6420   */\n      dup2\n        /* \"#utility.yul\":6399:6437   */\n      sub\n        /* \"#utility.yul\":6396:6480   */\n      tag_147\n      jumpi\n        /* \"#utility.yul\":6452:6470   */\n      tag_148\n      tag_63\n      jump\t// in\n    tag_148:\n        /* \"#utility.yul\":6396:6480   */\n    tag_147:\n        /* \"#utility.yul\":6217:6486   */\n      pop\n        /* \"#utility.yul\":6166:6486   */\n      swap2\n      swap1\n      pop\n      jump\t// out\n        /* \"#utility.yul\":6492:6633   */\n    tag_64:\n        /* \"#utility.yul\":6541:6545   */\n      0x00\n        /* \"#utility.yul\":6564:6567   */\n      dup2\n        /* \"#utility.yul\":6556:6567   */\n      swap1\n      pop\n        /* \"#utility.yul\":6587:6590   */\n      dup2\n        /* \"#utility.yul\":6584:6585   */\n      0x00\n        /* \"#utility.yul\":6577:6591   */\n      mstore\n        /* \"#utility.yul\":6621:6625   */\n      0x20\n        /* \"#utility.yul\":6618:6619   */\n      0x00\n        /* \"#utility.yul\":6608:6626   */\n      keccak256\n        /* \"#utility.yul\":6600:6626   */\n      swap1\n      pop\n        /* \"#utility.yul\":6492:6633   */\n      swap2\n      swap1\n      pop\n      jump\t// out\n        /* \"#utility.yul\":6639:6732   */\n    tag_65:\n        /* \"#utility.yul\":6676:6682   */\n      0x00\n        /* \"#utility.yul\":6723:6725   */\n      0x20\n        /* \"#utility.yul\":6718:6720   */\n      0x1f\n        /* \"#utility.yul\":6711:6716   */\n      dup4\n        /* \"#utility.yul\":6707:6721   */\n      add\n        /* \"#utility.yul\":6703:6726   */\n      div\n        /* \"#utility.yul\":6693:6726   */\n      swap1\n      pop\n        /* \"#utility.yul\":6639:6732   */\n      swap2\n      swap1\n      pop\n      jump\t// out\n        /* \"#utility.yul\":6738:6845   */\n    tag_66:\n        /* \"#utility.yul\":6782:6790   */\n      0x00\n        /* \"#utility.yul\":6832:6837   */\n      dup3\n        /* \"#utility.yul\":6826:6830   */\n      dup3\n        /* \"#utility.yul\":6822:6838   */\n      shl\n        /* \"#utility.yul\":6801:6838   */\n      swap1\n      pop\n        /* \"#utility.yul\":6738:6845   */\n      swap3\n      swap2\n      pop\n      pop\n      jump\t// out\n        /* \"#utility.yul\":6851:7244   */\n    tag_67:\n        /* \"#utility.yul\":6920:6926   */\n      0x00\n        /* \"#utility.yul\":6970:6971   */\n      0x08\n        /* \"#utility.yul\":6958:6968   */\n      dup4\n        /* \"#utility.yul\":6954:6972   */\n      mul\n        /* \"#utility.yul\":6993:7090   */\n      tag_153\n        /* \"#utility.yul\":7023:7089   */\n      0xffffffffffffffffffffffffffffffffffffffffffffffffffffffffffffffff\n        /* \"#utility.yul\":7012:7021   */\n      dup3\n        /* \"#utility.yul\":6993:7090   */\n      tag_66\n      jump\t// in\n    tag_153:\n        /* \"#utility.yul\":7111:7150   */\n      tag_154\n        /* \"#utility.yul\":7141:7149   */\n      dup7\n        /* \"#utility.yul\":7130:7139   */\n      dup4\n        /* \"#utility.yul\":7111:7150   */\n      tag_66\n      jump\t// in\n    tag_154:\n        /* \"#utility.yul\":7099:7150   */\n      swap6\n      pop\n        /* \"#utility.yul\":7183:7187   */\n      dup1\n        /* \"#utility.yul\":7179:7188   */\n      not\n        /* \"#utility.yul\":7172:7177   */\n      dup5\n        /* \"#utility.yul\":7168:7189   */\n      and\n        /* \"#utility.yul\":7159:7189   */\n      swap4\n      pop\n        /* \"#utility.yul\":7232:7236   */\n      dup1\n        /* \"#utility.yul\":7222:7230   */\n      dup7\n        /* \"#utility.yul\":7218:7237   */\n      and\n        /* \"#utility.yul\":7211:7216   */\n      dup5\n        /* \"#utility.yul\":7208:7238   */\n      or\n        /* \"#utility.yul\":7198:7238   */\n      swap3\n      pop\n        /* \"#utility.yul\":6927:7244   */\n      pop\n      pop\n        /* \"#utility.yul\":6851:7244   */\n      swap4\n      swap3\n      pop\n      pop\n      pop\n      jump\t// out\n        /* \"#utility.yul\":7250:7310   */\n    tag_68:\n        /* \"#utility.yul\":7278:7281   */\n      0x00\n        /* \"#utility.yul\":7299:7304   */\n      dup2\n        /* \"#utility.yul\":7292:7304   */\n      swap1\n      pop\n        /* \"#utility.yul\":7250:7310   */\n      swap2\n      swap1\n      pop\n      jump\t// out\n        /* \"#utility.yul\":7316:7458   */\n    tag_69:\n        /* \"#utility.yul\":7366:7375   */\n      0x00\n        /* \"#utility.yul\":7399:7452   */\n      tag_157\n        /* \"#utility.yul\":7417:7451   */\n      tag_158\n        /* \"#utility.yul\":7426:7450   */\n      tag_159\n        /* \"#utility.yul\":7444:7449   */\n      dup5\n        /* \"#utility.yul\":7426:7450   */\n      tag_44\n      jump\t// in\n    tag_159:\n        /* \"#utility.yul\":7417:7451   */\n      tag_68\n      jump\t// in\n    tag_158:\n        /* \"#utility.yul\":7399:7452   */\n      tag_44\n      jump\t// in\n    tag_157:\n        /* \"#utility.yul\":7386:7452   */\n      swap1\n      pop\n        /* \"#utility.yul\":7316:7458   */\n      swap2\n      swap1\n      pop\n      jump\t// out\n        /* \"#utility.yul\":7464:7539   */\n    tag_70:\n        /* \"#utility.yul\":7507:7510   */\n      0x00\n        /* \"#utility.yul\":7528:7533   */\n      dup2\n        /* \"#utility.yul\":7521:7533   */\n      swap1\n      pop\n        /* \"#utility.yul\":7464:7539   */\n      swap2\n      swap1\n      pop\n      jump\t// out\n        /* \"#utility.yul\":7545:7814   */\n    tag_71:\n        /* \"#utility.yul\":7655:7694   */\n      tag_162\n        /* \"#utility.yul\":7686:7693   */\n      dup4\n        /* \"#utility.yul\":7655:7694   */\n      tag_69\n      jump\t// in\n    tag_162:\n        /* \"#utility.yul\":7716:7807   */\n      tag_163\n        /* \"#utility.yul\":7765:7806   */\n      tag_164\n        /* \"#utility.yul\":7789:7805   */\n      dup3\n        /* \"#utility.yul\":7765:7806   */\n      tag_70\n      jump\t// in\n    tag_164:\n        /* \"#utility.yul\":7757:7763   */\n      dup5\n        /* \"#utility.yul\":7750:7754   */\n      dup5\n        /* \"#utility.yul\":7744:7755   */\n      sload\n        /* \"#utility.yul\":7716:7807   */\n      tag_67\n      jump\t// in\n    tag_163:\n        /* \"#utility.yul\":7710:7714   */\n      dup3\n        /* \"#utility.yul\":7703:7808   */\n      sstore\n        /* \"#utility.yul\":7621:7814   */\n      pop\n        /* \"#utility.yul\":7545:7814   */\n      pop\n      pop\n      pop\n      jump\t// out\n        /* \"#utility.yul\":7820:7893   */\n    tag_72:\n        /* \"#utility.yul\":7865:7868   */\n      0x00\n        /* \"#utility.yul\":7820:7893   */\n      swap1\n      jump\t// out\n        /* \"#utility.yul\":7899:8088   */\n    tag_73:\n        /* \"#utility.yul\":7976:8008   */\n      tag_167\n      tag_72\n      jump\t// in\n    tag_167:\n        /* \"#utility.yul\":8017:8082   */\n      tag_168\n        /* \"#utility.yul\":8075:8081   */\n      dup2\n        /* \"#utility.yul\":8067:8073   */\n      dup5\n        /* \"#utility.yul\":8061:8065   */\n      dup5\n        /* \"#utility.yul\":8017:8082   */\n      tag_71\n      jump\t// in\n    tag_168:\n        /* \"#utility.yul\":7952:8088   */\n      pop\n        /* \"#utility.yul\":7899:8088   */\n      pop\n      pop\n      jump\t// out\n        /* \"#utility.yul\":8094:8280   */\n    tag_74:\n        /* \"#utility.yul\":8154:8274   */\n    tag_170:\n        /* \"#utility.yul\":8171:8174   */\n      dup2\n        /* \"#utility.yul\":8164:8169   */\n      dup2\n        /* \"#utility.yul\":8161:8175   */\n      lt\n        /* \"#utility.yul\":8154:8274   */\n      iszero\n      tag_172\n      jumpi\n        /* \"#utility.yul\":8225:8264   */\n      tag_173\n        /* \"#utility.yul\":8262:8263   */\n      0x00\n        /* \"#utility.yul\":8255:8260   */\n      dup3\n        /* \"#utility.yul\":8225:8264   */\n      tag_73\n      jump\t// in\n    tag_173:\n        /* \"#utility.yul\":8198:8199   */\n      0x01\n        /* \"#utility.yul\":8191:8196   */\n      dup2\n        /* \"#utility.yul\":8187:8200   */\n      add\n        /* \"#utility.yul\":8178:8200   */\n      swap1\n      pop\n        /* \"#utility.yul\":8154:8274   */\n      jump(tag_170)\n    tag_172:\n        /* \"#utility.yul\":8094:8280   */\n      pop\n      pop\n      jump\t// out\n        /* \"#utility.yul\":8286:8829   */\n    tag_75:\n        /* \"#utility.yul\":8387:8389   */\n      0x1f\n        /* \"#utility.yul\":8382:8385   */\n      dup3\n        /* \"#utility.yul\":8379:8390   */\n      gt\n        /* \"#utility.yul\":8376:8822   */\n      iszero\n      tag_175\n      jumpi\n        /* \"#utility.yul\":8421:8459   */\n      tag_176\n        /* \"#utility.yul\":8453:8458   */\n      dup2\n        /* \"#utility.yul\":8421:8459   */\n      tag_64\n      jump\t// in\n    tag_176:\n        /* \"#utility.yul\":8505:8534   */\n      tag_177\n        /* \"#utility.yul\":8523:8533   */\n      dup5\n        /* \"#utility.yul\":8505:8534   */\n      tag_65\n      jump\t// in\n    tag_177:\n        /* \"#utility.yul\":8495:8503   */\n      dup2\n        /* \"#utility.yul\":8491:8535   */\n      add\n        /* \"#utility.yul\":8688:8690   */\n      0x20\n        /* \"#utility.yul\":8676:8686   */\n      dup6\n        /* \"#utility.yul\":8673:8691   */\n      lt\n        /* \"#utility.yul\":8670:8719   */\n      iszero\n      tag_178\n      jumpi\n        /* \"#utility.yul\":8709:8717   */\n      dup2\n        /* \"#utility.yul\":8694:8717   */\n      swap1\n      pop\n        /* \"#utility.yul\":8670:8719   */\n    tag_178:\n        /* \"#utility.yul\":8732:8812   */\n      tag_179\n        /* \"#utility.yul\":8788:8810   */\n      tag_180\n        /* \"#utility.yul\":8806:8809   */\n      dup6\n        /* \"#utility.yul\":8788:8810   */\n      tag_65\n      jump\t// in\n    tag_180:\n        /* \"#utility.yul\":8778:8786   */\n      dup4\n        /* \"#utility.yul\":8774:8811   */\n      add\n        /* \"#utility.yul\":8761:8772   */\n      dup3\n        /* \"#utility.yul\":8732:8812   */\n      tag_74\n      jump\t// in\n    tag_179:\n        /* \"#utility.yul\":8391:8822   */\n      pop\n      pop\n        /* \"#utility.yul\":8376:8822   */\n    tag_175:\n        /* \"#utility.yul\":8286:8829   */\n      pop\n      pop\n      pop\n      jump\t// out\n        /* \"#utility.yul\":8835:8952   */\n    tag_76:\n        /* \"#utility.yul\":8889:8897   */\n      0x00\n        /* \"#utility.yul\":8939:8944   */\n      dup3\n        /* \"#utility.yul\":8933:8937   */\n      dup3\n        /* \"#utility.yul\":8929:8945   */\n      shr\n        /* \"#utility.yul\":8908:8945   */\n      swap1\n      pop\n        /* \"#utility.yul\":8835:8952   */\n      swap3\n      swap2\n      pop\n      pop\n      jump\t// out\n        /* \"#utility.yul\":8958:9127   */\n    tag_77:\n        /* \"#utility.yul\":9002:9008   */\n      0x00\n        /* \"#utility.yul\":9035:9086   */\n      tag_183\n        /* \"#utility.yul\":9083:9084   */\n      0x00\n        /* \"#utility.yul\":9079:9085   */\n      not\n        /* \"#utility.yul\":9071:9076   */\n      dup5\n        /* \"#utility.yul\":9068:9069   */\n      0x08\n        /* \"#utility.yul\":9064:9077   */\n      mul\n        /* \"#utility.yul\":9035:9086   */\n      tag_76\n      jump\t// in\n    tag_183:\n        /* \"#utility.yul\":9031:9087   */\n      not\n        /* \"#utility.yul\":9116:9120   */\n      dup1\n        /* \"#utility.yul\":9110:9114   */\n      dup4\n        /* \"#utility.yul\":9106:9121   */\n      and\n        /* \"#utility.yul\":9096:9121   */\n      swap2\n      pop\n        /* \"#utility.yul\":9009:9127   */\n      pop\n        /* \"#utility.yul\":8958:9127   */\n      swap3\n      swap2\n      pop\n      pop\n      jump\t// out\n        /* \"#utility.yul\":9132:9427   */\n    tag_78:\n        /* \"#utility.yul\":9208:9212   */\n      0x00\n        /* \"#utility.yul\":9354:9383   */\n      tag_185\n        /* \"#utility.yul\":9379:9382   */\n      dup4\n        /* \"#utility.yul\":9373:9377   */\n      dup4\n        /* \"#utility.yul\":9354:9383   */\n      tag_77\n      jump\t// in\n    tag_185:\n        /* \"#utility.yul\":9346:9383   */\n      swap2\n      pop\n        /* \"#utility.yul\":9416:9419   */\n      dup3\n        /* \"#utility.yul\":9413:9414   */\n      0x02\n        /* \"#utility.yul\":9409:9420   */\n      mul\n        /* \"#utility.yul\":9403:9407   */\n      dup3\n        /* \"#utility.yul\":9400:9421   */\n      or\n        /* \"#utility.yul\":9392:9421   */\n      swap1\n      pop\n        /* \"#utility.yul\":9132:9427   */\n      swap3\n      swap2\n      pop\n      pop\n      jump\t// out\n        /* \"#utility.yul\":9432:10835   */\n    tag_26:\n        /* \"#utility.yul\":9556:9600   */\n      tag_187\n        /* \"#utility.yul\":9596:9599   */\n      dup4\n        /* \"#utility.yul\":9591:9594   */\n      dup4\n        /* \"#utility.yul\":9556:9600   */\n      tag_61\n      jump\t// in\n    tag_187:\n        /* \"#utility.yul\":9665:9683   */\n      0xffffffffffffffff\n        /* \"#utility.yul\":9657:9663   */\n      dup2\n        /* \"#utility.yul\":9654:9684   */\n      gt\n        /* \"#utility.yul\":9651:9707   */\n      iszero\n      tag_188\n      jumpi\n        /* \"#utility.yul\":9687:9705   */\n      tag_189\n      tag_62\n      jump\t// in\n    tag_189:\n        /* \"#utility.yul\":9651:9707   */\n    tag_188:\n        /* \"#utility.yul\":9731:9769   */\n      tag_190\n        /* \"#utility.yul\":9763:9767   */\n      dup3\n        /* \"#utility.yul\":9757:9768   */\n      sload\n        /* \"#utility.yul\":9731:9769   */\n      tag_30\n      jump\t// in\n    tag_190:\n        /* \"#utility.yul\":9816:9883   */\n      tag_191\n        /* \"#utility.yul\":9876:9882   */\n      dup3\n        /* \"#utility.yul\":9868:9874   */\n      dup3\n        /* \"#utility.yul\":9862:9866   */\n      dup6\n        /* \"#utility.yul\":9816:9883   */\n      tag_75\n      jump\t// in\n    tag_191:\n        /* \"#utility.yul\":9910:9911   */\n      0x00\n        /* \"#utility.yul\":9939:9941   */\n      0x1f\n        /* \"#utility.yul\":9931:9937   */\n      dup4\n        /* \"#utility.yul\":9928:9942   */\n      gt\n        /* \"#utility.yul\":9956:9957   */\n      0x01\n        /* \"#utility.yul\":9951:10583   */\n      dup2\n      eq\n      tag_193\n      jumpi\n        /* \"#utility.yul\":10627:10628   */\n      0x00\n        /* \"#utility.yul\":10644:10650   */\n      dup5\n        /* \"#utility.yul\":10641:10725   */\n      iszero\n      tag_194\n      jumpi\n        /* \"#utility.yul\":10700:10709   */\n      dup3\n        /* \"#utility.yul\":10695:10698   */\n      dup8\n        /* \"#utility.yul\":10691:10710   */\n      add\n        /* \"#utility.yul\":10678:10711   */\n      calldataload\n        /* \"#utility.yul\":10669:10711   */\n      swap1\n      pop\n        /* \"#utility.yul\":10641:10725   */\n    tag_194:\n        /* \"#utility.yul\":10751:10818   */\n      tag_195\n        /* \"#utility.yul\":10811:10817   */\n      dup6\n        /* \"#utility.yul\":10804:10809   */\n      dup3\n        /* \"#utility.yul\":10751:10818   */\n      tag_78\n      jump\t// in\n    tag_195:\n        /* \"#utility.yul\":10745:10749   */\n      dup7\n        /* \"#utility.yul\":10738:10819   */\n      sstore\n        /* \"#utility.yul\":10600:10829   */\n      pop\n        /* \"#utility.yul\":9921:10829   */\n      jump(tag_192)\n        /* \"#utility.yul\":9951:10583   */\n    tag_193:\n        /* \"#utility.yul\":10003:10007   */\n      0x1f\n        /* \"#utility.yul\":9999:10008   */\n      not\n        /* \"#utility.yul\":9991:9997   */\n      dup5\n        /* \"#utility.yul\":9987:10009   */\n      and\n        /* \"#utility.yul\":10037:10074   */\n      tag_196\n        /* \"#utility.yul\":10069:10073   */\n      dup7\n        /* \"#utility.yul\":10037:10074   */\n      tag_64\n      jump\t// in\n    tag_196:\n        /* \"#utility.yul\":10096:10097   */\n      0x00\n        /* \"#utility.yul\":10110:10325   */\n    tag_197:\n        /* \"#utility.yul\":10124:10131   */\n      dup3\n        /* \"#utility.yul\":10121:10122   */\n      dup2\n        /* \"#utility.yul\":10118:10132   */\n      lt\n        /* \"#utility.yul\":10110:10325   */\n      iszero\n      tag_199\n      jumpi\n        /* \"#utility.yul\":10210:10219   */\n      dup5\n        /* \"#utility.yul\":10205:10208   */\n      dup10\n        /* \"#utility.yul\":10201:10220   */\n      add\n        /* \"#utility.yul\":10188:10221   */\n      calldataload\n        /* \"#utility.yul\":10180:10186   */\n      dup3\n        /* \"#utility.yul\":10173:10222   */\n      sstore\n        /* \"#utility.yul\":10261:10262   */\n      0x01\n        /* \"#utility.yul\":10253:10259   */\n      dup3\n        /* \"#utility.yul\":10249:10263   */\n      add\n        /* \"#utility.yul\":10239:10263   */\n      swap2\n      pop\n        /* \"#utility.yul\":10308:10310   */\n      0x20\n        /* \"#utility.yul\":10297:10306   */\n      dup6\n        /* \"#utility.yul\":10293:10311   */\n      add\n        /* \"#utility.yul\":10280:10311   */\n      swap5\n      pop\n        /* \"#utility.yul\":10147:10151   */\n      0x20\n        /* \"#utility.yul\":10144:10145   */\n      dup2\n        /* \"#utility.yul\":10140:10152   */\n      add\n        /* \"#utility.yul\":10135:10152   */\n      swap1\n      pop\n        /* \"#utility.yul\":10110:10325   */\n      jump(tag_197)\n    tag_199:\n        /* \"#utility.yul\":10353:10359   */\n      dup7\n        /* \"#utility.yul\":10344:10351   */\n      dup4\n        /* \"#utility.yul\":10341:10360   */\n      lt\n        /* \"#utility.yul\":10338:10524   */\n      iszero\n      tag_200\n      jumpi\n        /* \"#utility.yul\":10418:10427   */\n      dup5\n        /* \"#utility.yul\":10413:10416   */\n      dup10\n        /* \"#utility.yul\":10409:10428   */\n      add\n        /* \"#utility.yul\":10396:10429   */\n      calldataload\n        /* \"#utility.yul\":10461:10509   */\n      tag_201\n        /* \"#utility.yul\":10503:10507   */\n      0x1f\n        /* \"#utility.yul\":10495:10501   */\n      dup10\n        /* \"#utility.yul\":10491:10508   */\n      and\n        /* \"#utility.yul\":10480:10489   */\n      dup3\n        /* \"#utility.yul\":10461:10509   */\n      tag_77\n      jump\t// in\n    tag_201:\n        /* \"#utility.yul\":10453:10459   */\n      dup4\n        /* \"#utility.yul\":10446:10510   */\n      sstore\n        /* \"#utility.yul\":10361:10524   */\n      pop\n        /* \"#utility.yul\":10338:10524   */\n    tag_200:\n        /* \"#utility.yul\":10570:10571   */\n      0x01\n        /* \"#utility.yul\":10566:10567   */\n      0x02\n        /* \"#utility.yul\":10558:10564   */\n      dup9\n        /* \"#utility.yul\":10554:10568   */\n      mul\n        /* \"#utility.yul\":10550:10572   */\n      add\n        /* \"#utility.yul\":10544:10548   */\n      dup9\n        /* \"#utility.yul\":10537:10573   */\n      sstore\n        /* \"#utility.yul\":9958:10583   */\n      pop\n      pop\n      pop\n        /* \"#utility.yul\":9921:10829   */\n    tag_192:\n      pop\n        /* \"#utility.yul\":9531:10835   */\n      pop\n      pop\n      pop\n        /* \"#utility.yul\":9432:10835   */\n      pop\n      pop\n      pop\n      jump\t// out\n        /* \"#utility.yul\":10841:12236   */\n    tag_40:\n        /* \"#utility.yul\":10958:10995   */\n      tag_203\n        /* \"#utility.yul\":10991:10994   */\n      dup3\n        /* \"#utility.yul\":10958:10995   */\n      tag_51\n      jump\t// in\n    tag_203:\n        /* \"#utility.yul\":11060:11078   */\n      0xffffffffffffffff\n        /* \"#utility.yul\":11052:11058   */\n      dup2\n        /* \"#utility.yul\":11049:11079   */\n      gt\n        /* \"#utility.yul\":11046:11102   */\n      iszero\n      tag_204\n      jumpi\n        /* \"#utility.yul\":11082:11100   */\n      tag_205\n      tag_62\n      jump\t// in\n    tag_205:\n        /* \"#utility.yul\":11046:11102   */\n    tag_204:\n        /* \"#utility.yul\":11126:11164   */\n      tag_206\n        /* \"#utility.yul\":11158:11162   */\n      dup3\n        /* \"#utility.yul\":11152:11163   */\n      sload\n        /* \"#utility.yul\":11126:11164   */\n      tag_30\n      jump\t// in\n    tag_206:\n        /* \"#utility.yul\":11211:11278   */\n      tag_207\n        /* \"#utility.yul\":11271:11277   */\n      dup3\n        /* \"#utility.yul\":11263:11269   */\n      dup3\n        /* \"#utility.yul\":11257:11261   */\n      dup6\n        /* \"#utility.yul\":11211:11278   */\n      tag_75\n      jump\t// in\n    tag_207:\n        /* \"#utility.yul\":11305:11306   */\n      0x00\n        /* \"#utility.yul\":11329:11333   */\n      0x20\n        /* \"#utility.yul\":11316:11333   */\n      swap1\n      pop\n        /* \"#utility.yul\":11361:11363   */\n      0x1f\n        /* \"#utility.yul\":11353:11359   */\n      dup4\n        /* \"#utility.yul\":11350:11364   */\n      gt\n        /* \"#utility.yul\":11378:11379   */\n      0x01\n        /* \"#utility.yul\":11373:11991   */\n      dup2\n      eq\n      tag_209\n      jumpi\n        /* \"#utility.yul\":12035:12036   */\n      0x00\n        /* \"#utility.yul\":12052:12058   */\n      dup5\n        /* \"#utility.yul\":12049:12126   */\n      iszero\n      tag_210\n      jumpi\n        /* \"#utility.yul\":12101:12110   */\n      dup3\n        /* \"#utility.yul\":12096:12099   */\n      dup8\n        /* \"#utility.yul\":12092:12111   */\n      add\n        /* \"#utility.yul\":12086:12112   */\n      mload\n        /* \"#utility.yul\":12077:12112   */\n      swap1\n      pop\n        /* \"#utility.yul\":12049:12126   */\n    tag_210:\n        /* \"#utility.yul\":12152:12219   */\n      tag_211\n        /* \"#utility.yul\":12212:12218   */\n      dup6\n        /* \"#utility.yul\":12205:12210   */\n      dup3\n        /* \"#utility.yul\":12152:12219   */\n      tag_78\n      jump\t// in\n    tag_211:\n        /* \"#utility.yul\":12146:12150   */\n      dup7\n        /* \"#utility.yul\":12139:12220   */\n      sstore\n        /* \"#utility.yul\":12008:12230   */\n      pop\n        /* \"#utility.yul\":11343:12230   */\n      jump(tag_208)\n        /* \"#utility.yul\":11373:11991   */\n    tag_209:\n        /* \"#utility.yul\":11425:11429   */\n      0x1f\n        /* \"#utility.yul\":11421:11430   */\n      not\n        /* \"#utility.yul\":11413:11419   */\n      dup5\n        /* \"#utility.yul\":11409:11431   */\n      and\n        /* \"#utility.yul\":11459:11496   */\n      tag_212\n        /* \"#utility.yul\":11491:11495   */\n      dup7\n        /* \"#utility.yul\":11459:11496   */\n      tag_64\n      jump\t// in\n    tag_212:\n        /* \"#utility.yul\":11518:11519   */\n      0x00\n        /* \"#utility.yul\":11532:11740   */\n    tag_213:\n        /* \"#utility.yul\":11546:11553   */\n      dup3\n        /* \"#utility.yul\":11543:11544   */\n      dup2\n        /* \"#utility.yul\":11540:11554   */\n      lt\n        /* \"#utility.yul\":11532:11740   */\n      iszero\n      tag_215\n      jumpi\n        /* \"#utility.yul\":11625:11634   */\n      dup5\n        /* \"#utility.yul\":11620:11623   */\n      dup10\n        /* \"#utility.yul\":11616:11635   */\n      add\n        /* \"#utility.yul\":11610:11636   */\n      mload\n        /* \"#utility.yul\":11602:11608   */\n      dup3\n        /* \"#utility.yul\":11595:11637   */\n      sstore\n        /* \"#utility.yul\":11676:11677   */\n      0x01\n        /* \"#utility.yul\":11668:11674   */\n      dup3\n        /* \"#utility.yul\":11664:11678   */\n      add\n        /* \"#utility.yul\":11654:11678   */\n      swap2\n      pop\n        /* \"#utility.yul\":11723:11725   */\n      0x20\n        /* \"#utility.yul\":11712:11721   */\n      dup6\n        /* \"#utility.yul\":11708:11726   */\n      add\n        /* \"#utility.yul\":11695:11726   */\n      swap5\n      pop\n        /* \"#utility.yul\":11569:11573   */\n      0x20\n        /* \"#utility.yul\":11566:11567   */\n      dup2\n        /* \"#utility.yul\":11562:11574   */\n      add\n        /* \"#utility.yul\":11557:11574   */\n      swap1\n      pop\n        /* \"#utility.yul\":11532:11740   */\n      jump(tag_213)\n    tag_215:\n        /* \"#utility.yul\":11768:11774   */\n      dup7\n        /* \"#utility.yul\":11759:11766   */\n      dup4\n        /* \"#utility.yul\":11756:11775   */\n      lt\n        /* \"#utility.yul\":11753:11932   */\n      iszero\n      tag_216\n      jumpi\n        /* \"#utility.yul\":11826:11835   */\n      dup5\n        /* \"#utility.yul\":11821:11824   */\n      dup10\n        /* \"#utility.yul\":11817:11836   */\n      add\n        /* \"#utility.yul\":11811:11837   */\n      mload\n        /* \"#utility.yul\":11869:11917   */\n      tag_217\n        /* \"#utility.yul\":11911:11915   */\n      0x1f\n        /* \"#utility.yul\":11903:11909   */\n      dup10\n        /* \"#utility.yul\":11899:11916   */\n      and\n        /* \"#utility.yul\":11888:11897   */\n      dup3\n        /* \"#utility.yul\":11869:11917   */\n      tag_77\n      jump\t// in\n    tag_217:\n        /* \"#utility.yul\":11861:11867   */\n      dup4\n        /* \"#utility.yul\":11854:11918   */\n      sstore\n        /* \"#utility.yul\":11776:11932   */\n      pop\n        /* \"#utility.yul\":11753:11932   */\n    tag_216:\n        /* \"#utility.yul\":11978:11979   */\n      0x01\n        /* \"#utility.yul\":11974:11975   */\n      0x02\n        /* \"#utility.yul\":11966:11972   */\n      dup9\n        /* \"#utility.yul\":11962:11976   */\n      mul\n        /* \"#utility.yul\":11958:11980   */\n      add\n        /* \"#utility.yul\":11952:11956   */\n      dup9\n        /* \"#utility.yul\":11945:11981   */\n      sstore\n        /* \"#utility.yul\":11380:11991   */\n      pop\n      pop\n      pop\n        /* \"#utility.yul\":11343:12230   */\n    tag_208:\n      pop\n        /* \"#utility.yul\":10933:12236   */\n      pop\n      pop\n      pop\n        /* \"#utility.yul\":10841:12236   */\n      pop\n      pop\n      jump\t// out\n\n    auxdata: 0xa2646970667358221220a2a9ab200696bd6fc01d4d31264593c4878fdc7c50de26ed326d01c96a78672d64736f6c634300081a0033\n}\n",
				"bytecode": {
					"linkReferences": {},
					"object": "6080604052348015600e575f80fd5b5061096e8061001c5f395ff3fe608060405234801561000f575f80fd5b506004361061003f575f3560e01c806353e76f2c146100435780638c53f85f1461005f578063a6551d4b14610091575b5f80fd5b61005d60048036038101906100589190610346565b6100ad565b005b610079600480360381019061007491906103a3565b6100e8565b60405161008893929190610467565b60405180910390f35b6100ab60048036038101906100a691906104cd565b6101ae565b005b5f8084815481106100c1576100c061053e565b5b905f5260205f20906003020190508282825f0191826100e192919061079c565b5050505050565b5f81815481106100f6575f80fd5b905f5260205f2090600302015f91509050805f018054610115906105cf565b80601f0160208091040260200160405190810160405280929190818152602001828054610141906105cf565b801561018c5780601f106101635761010080835404028352916020019161018c565b820191905f5260205f20905b81548152906001019060200180831161016f57829003601f168201915b505050505090806001015490806002015f9054906101000a900460ff16905083565b6101b6610289565b84848080601f0160208091040260200160405190810160405280939291908181526020018383808284375f81840152601f19601f82011690508083019250505050505050815f018190525082816020018181525050818160400190151590811515815250505f81908060018154018082558091505060019003905f5260205f2090600302015f909190919091505f820151815f0190816102569190610869565b50602082015181600101556040820151816002015f6101000a81548160ff02191690831515021790555050505050505050565b6040518060600160405280606081526020015f81526020015f151581525090565b5f80fd5b5f80fd5b5f819050919050565b6102c4816102b2565b81146102ce575f80fd5b50565b5f813590506102df816102bb565b92915050565b5f80fd5b5f80fd5b5f80fd5b5f8083601f840112610306576103056102e5565b5b8235905067ffffffffffffffff811115610323576103226102e9565b5b60208301915083600182028301111561033f5761033e6102ed565b5b9250929050565b5f805f6040848603121561035d5761035c6102aa565b5b5f61036a868287016102d1565b935050602084013567ffffffffffffffff81111561038b5761038a6102ae565b5b610397868287016102f1565b92509250509250925092565b5f602082840312156103b8576103b76102aa565b5b5f6103c5848285016102d1565b91505092915050565b5f81519050919050565b5f82825260208201905092915050565b8281835e5f83830152505050565b5f601f19601f8301169050919050565b5f610410826103ce565b61041a81856103d8565b935061042a8185602086016103e8565b610433816103f6565b840191505092915050565b610447816102b2565b82525050565b5f8115159050919050565b6104618161044d565b82525050565b5f6060820190508181035f83015261047f8186610406565b905061048e602083018561043e565b61049b6040830184610458565b949350505050565b6104ac8161044d565b81146104b6575f80fd5b50565b5f813590506104c7816104a3565b92915050565b5f805f80606085870312156104e5576104e46102aa565b5b5f85013567ffffffffffffffff811115610502576105016102ae565b5b61050e878288016102f1565b94509450506020610521878288016102d1565b9250506040610532878288016104b9565b91505092959194509250565b7f4e487b71000000000000000000000000000000000000000000000000000000005f52603260045260245ffd5b5f82905092915050565b7f4e487b71000000000000000000000000000000000000000000000000000000005f52604160045260245ffd5b7f4e487b71000000000000000000000000000000000000000000000000000000005f52602260045260245ffd5b5f60028204905060018216806105e657607f821691505b6020821081036105f9576105f86105a2565b5b50919050565b5f819050815f5260205f209050919050565b5f6020601f8301049050919050565b5f82821b905092915050565b5f6008830261065b7fffffffffffffffffffffffffffffffffffffffffffffffffffffffffffffffff82610620565b6106658683610620565b95508019841693508086168417925050509392505050565b5f819050919050565b5f6106a061069b610696846102b2565b61067d565b6102b2565b9050919050565b5f819050919050565b6106b983610686565b6106cd6106c5826106a7565b84845461062c565b825550505050565b5f90565b6106e16106d5565b6106ec8184846106b0565b505050565b5b8181101561070f576107045f826106d9565b6001810190506106f2565b5050565b601f82111561075457610725816105ff565b61072e84610611565b8101602085101561073d578190505b61075161074985610611565b8301826106f1565b50505b505050565b5f82821c905092915050565b5f6107745f1984600802610759565b1980831691505092915050565b5f61078c8383610765565b9150826002028217905092915050565b6107a6838361056b565b67ffffffffffffffff8111156107bf576107be610575565b5b6107c982546105cf565b6107d4828285610713565b5f601f831160018114610801575f84156107ef578287013590505b6107f98582610781565b865550610860565b601f19841661080f866105ff565b5f5b8281101561083657848901358255600182019150602085019450602081019050610811565b86831015610853578489013561084f601f891682610765565b8355505b6001600288020188555050505b50505050505050565b610872826103ce565b67ffffffffffffffff81111561088b5761088a610575565b5b61089582546105cf565b6108a0828285610713565b5f60209050601f8311600181146108d1575f84156108bf578287015190505b6108c98582610781565b865550610930565b601f1984166108df866105ff565b5f5b82811015610906578489015182556001820191506020850194506020810190506108e1565b86831015610923578489015161091f601f891682610765565b8355505b6001600288020188555050505b50505050505056fea2646970667358221220a2a9ab200696bd6fc01d4d31264593c4878fdc7c50de26ed326d01c96a78672d64736f6c634300081a0033",
					"opcodes": "PUSH1 0x80 PUSH1 0x40 MSTORE CALLVALUE DUP1 ISZERO PUSH1 0xE JUMPI PUSH0 DUP1 REVERT JUMPDEST POP PUSH2 0x96E DUP1 PUSH2 0x1C PUSH0 CODECOPY PUSH0 RETURN INVALID PUSH1 0x80 PUSH1 0x40 MSTORE CALLVALUE DUP1 ISZERO PUSH2 0xF JUMPI PUSH0 DUP1 REVERT JUMPDEST POP PUSH1 0x4 CALLDATASIZE LT PUSH2 0x3F JUMPI PUSH0 CALLDATALOAD PUSH1 0xE0 SHR DUP1 PUSH4 0x53E76F2C EQ PUSH2 0x43 JUMPI DUP1 PUSH4 0x8C53F85F EQ PUSH2 0x5F JUMPI DUP1 PUSH4 0xA6551D4B EQ PUSH2 0x91 JUMPI JUMPDEST PUSH0 DUP1 REVERT JUMPDEST PUSH2 0x5D PUSH1 0x4 DUP1 CALLDATASIZE SUB DUP2 ADD SWAP1 PUSH2 0x58 SWAP2 SWAP1 PUSH2 0x346 JUMP JUMPDEST PUSH2 0xAD JUMP JUMPDEST STOP JUMPDEST PUSH2 0x79 PUSH1 0x4 DUP1 CALLDATASIZE SUB DUP2 ADD SWAP1 PUSH2 0x74 SWAP2 SWAP1 PUSH2 0x3A3 JUMP JUMPDEST PUSH2 0xE8 JUMP JUMPDEST PUSH1 0x40 MLOAD PUSH2 0x88 SWAP4 SWAP3 SWAP2 SWAP1 PUSH2 0x467 JUMP JUMPDEST PUSH1 0x40 MLOAD DUP1 SWAP2 SUB SWAP1 RETURN JUMPDEST PUSH2 0xAB PUSH1 0x4 DUP1 CALLDATASIZE SUB DUP2 ADD SWAP1 PUSH2 0xA6 SWAP2 SWAP1 PUSH2 0x4CD JUMP JUMPDEST PUSH2 0x1AE JUMP JUMPDEST STOP JUMPDEST PUSH0 DUP1 DUP5 DUP2 SLOAD DUP2 LT PUSH2 0xC1 JUMPI PUSH2 0xC0 PUSH2 0x53E JUMP JUMPDEST JUMPDEST SWAP1 PUSH0 MSTORE PUSH1 0x20 PUSH0 KECCAK256 SWAP1 PUSH1 0x3 MUL ADD SWAP1 POP DUP3 DUP3 DUP3 PUSH0 ADD SWAP2 DUP3 PUSH2 0xE1 SWAP3 SWAP2 SWAP1 PUSH2 0x79C JUMP JUMPDEST POP POP POP POP POP JUMP JUMPDEST PUSH0 DUP2 DUP2 SLOAD DUP2 LT PUSH2 0xF6 JUMPI PUSH0 DUP1 REVERT JUMPDEST SWAP1 PUSH0 MSTORE PUSH1 0x20 PUSH0 KECCAK256 SWAP1 PUSH1 0x3 MUL ADD PUSH0 SWAP2 POP SWAP1 POP DUP1 PUSH0 ADD DUP1 SLOAD PUSH2 0x115 SWAP1 PUSH2 0x5CF JUMP JUMPDEST DUP1 PUSH1 0x1F ADD PUSH1 0x20 DUP1 SWAP2 DIV MUL PUSH1 0x20 ADD PUSH1 0x40 MLOAD SWAP1 DUP2 ADD PUSH1 0x40 MSTORE DUP1 SWAP3 SWAP2 SWAP1 DUP2 DUP2 MSTORE PUSH1 0x20 ADD DUP3 DUP1 SLOAD PUSH2 0x141 SWAP1 PUSH2 0x5CF JUMP JUMPDEST DUP1 ISZERO PUSH2 0x18C JUMPI DUP1 PUSH1 0x1F LT PUSH2 0x163 JUMPI PUSH2 0x100 DUP1 DUP4 SLOAD DIV MUL DUP4 MSTORE SWAP2 PUSH1 0x20 ADD SWAP2 PUSH2 0x18C JUMP JUMPDEST DUP3 ADD SWAP2 SWAP1 PUSH0 MSTORE PUSH1 0x20 PUSH0 KECCAK256 SWAP1 JUMPDEST DUP2 SLOAD DUP2 MSTORE SWAP1 PUSH1 0x1 ADD SWAP1 PUSH1 0x20 ADD DUP1 DUP4 GT PUSH2 0x16F JUMPI DUP3 SWAP1 SUB PUSH1 0x1F AND DUP3 ADD SWAP2 JUMPDEST POP POP POP POP POP SWAP1 DUP1 PUSH1 0x1 ADD SLOAD SWAP1 DUP1 PUSH1 0x2 ADD PUSH0 SWAP1 SLOAD SWAP1 PUSH2 0x100 EXP SWAP1 DIV PUSH1 0xFF AND SWAP1 POP DUP4 JUMP JUMPDEST PUSH2 0x1B6 PUSH2 0x289 JUMP JUMPDEST DUP5 DUP5 DUP1 DUP1 PUSH1 0x1F ADD PUSH1 0x20 DUP1 SWAP2 DIV MUL PUSH1 0x20 ADD PUSH1 0x40 MLOAD SWAP1 DUP2 ADD PUSH1 0x40 MSTORE DUP1 SWAP4 SWAP3 SWAP2 SWAP1 DUP2 DUP2 MSTORE PUSH1 0x20 ADD DUP4 DUP4 DUP1 DUP3 DUP5 CALLDATACOPY PUSH0 DUP2 DUP5 ADD MSTORE PUSH1 0x1F NOT PUSH1 0x1F DUP3 ADD AND SWAP1 POP DUP1 DUP4 ADD SWAP3 POP POP POP POP POP POP POP DUP2 PUSH0 ADD DUP2 SWAP1 MSTORE POP DUP3 DUP2 PUSH1 0x20 ADD DUP2 DUP2 MSTORE POP POP DUP2 DUP2 PUSH1 0x40 ADD SWAP1 ISZERO ISZERO SWAP1 DUP2 ISZERO ISZERO DUP2 MSTORE POP POP PUSH0 DUP2 SWAP1 DUP1 PUSH1 0x1 DUP2 SLOAD ADD DUP1 DUP3 SSTORE DUP1 SWAP2 POP POP PUSH1 0x1 SWAP1 SUB SWAP1 PUSH0 MSTORE PUSH1 0x20 PUSH0 KECCAK256 SWAP1 PUSH1 0x3 MUL ADD PUSH0 SWAP1 SWAP2 SWAP1 SWAP2 SWAP1 SWAP2 POP PUSH0 DUP3 ADD MLOAD DUP2 PUSH0 ADD SWAP1 DUP2 PUSH2 0x256 SWAP2 SWAP1 PUSH2 0x869 JUMP JUMPDEST POP PUSH1 0x20 DUP3 ADD MLOAD DUP2 PUSH1 0x1 ADD SSTORE PUSH1 0x40 DUP3 ADD MLOAD DUP2 PUSH1 0x2 ADD PUSH0 PUSH2 0x100 EXP DUP2 SLOAD DUP2 PUSH1 0xFF MUL NOT AND SWAP1 DUP4 ISZERO ISZERO MUL OR SWAP1 SSTORE POP POP POP POP POP POP POP POP JUMP JUMPDEST PUSH1 0x40 MLOAD DUP1 PUSH1 0x60 ADD PUSH1 0x40 MSTORE DUP1 PUSH1 0x60 DUP2 MSTORE PUSH1 0x20 ADD PUSH0 DUP2 MSTORE PUSH1 0x20 ADD PUSH0 ISZERO ISZERO DUP2 MSTORE POP SWAP1 JUMP JUMPDEST PUSH0 DUP1 REVERT JUMPDEST PUSH0 DUP1 REVERT JUMPDEST PUSH0 DUP2 SWAP1 POP SWAP2 SWAP1 POP JUMP JUMPDEST PUSH2 0x2C4 DUP2 PUSH2 0x2B2 JUMP JUMPDEST DUP2 EQ PUSH2 0x2CE JUMPI PUSH0 DUP1 REVERT JUMPDEST POP JUMP JUMPDEST PUSH0 DUP2 CALLDATALOAD SWAP1 POP PUSH2 0x2DF DUP2 PUSH2 0x2BB JUMP JUMPDEST SWAP3 SWAP2 POP POP JUMP JUMPDEST PUSH0 DUP1 REVERT JUMPDEST PUSH0 DUP1 REVERT JUMPDEST PUSH0 DUP1 REVERT JUMPDEST PUSH0 DUP1 DUP4 PUSH1 0x1F DUP5 ADD SLT PUSH2 0x306 JUMPI PUSH2 0x305 PUSH2 0x2E5 JUMP JUMPDEST JUMPDEST DUP3 CALLDATALOAD SWAP1 POP PUSH8 0xFFFFFFFFFFFFFFFF DUP2 GT ISZERO PUSH2 0x323 JUMPI PUSH2 0x322 PUSH2 0x2E9 JUMP JUMPDEST JUMPDEST PUSH1 0x20 DUP4 ADD SWAP2 POP DUP4 PUSH1 0x1 DUP3 MUL DUP4 ADD GT ISZERO PUSH2 0x33F JUMPI PUSH2 0x33E PUSH2 0x2ED JUMP JUMPDEST JUMPDEST SWAP3 POP SWAP3 SWAP1 POP JUMP JUMPDEST PUSH0 DUP1 PUSH0 PUSH1 0x40 DUP5 DUP7 SUB SLT ISZERO PUSH2 0x35D JUMPI PUSH2 0x35C PUSH2 0x2AA JUMP JUMPDEST JUMPDEST PUSH0 PUSH2 0x36A DUP7 DUP3 DUP8 ADD PUSH2 0x2D1 JUMP JUMPDEST SWAP4 POP POP PUSH1 0x20 DUP5 ADD CALLDATALOAD PUSH8 0xFFFFFFFFFFFFFFFF DUP2 GT ISZERO PUSH2 0x38B JUMPI PUSH2 0x38A PUSH2 0x2AE JUMP JUMPDEST JUMPDEST PUSH2 0x397 DUP7 DUP3 DUP8 ADD PUSH2 0x2F1 JUMP JUMPDEST SWAP3 POP SWAP3 POP POP SWAP3 POP SWAP3 POP SWAP3 JUMP JUMPDEST PUSH0 PUSH1 0x20 DUP3 DUP5 SUB SLT ISZERO PUSH2 0x3B8 JUMPI PUSH2 0x3B7 PUSH2 0x2AA JUMP JUMPDEST JUMPDEST PUSH0 PUSH2 0x3C5 DUP5 DUP3 DUP6 ADD PUSH2 0x2D1 JUMP JUMPDEST SWAP2 POP POP SWAP3 SWAP2 POP POP JUMP JUMPDEST PUSH0 DUP2 MLOAD SWAP1 POP SWAP2 SWAP1 POP JUMP JUMPDEST PUSH0 DUP3 DUP3 MSTORE PUSH1 0x20 DUP3 ADD SWAP1 POP SWAP3 SWAP2 POP POP JUMP JUMPDEST DUP3 DUP2 DUP4 MCOPY PUSH0 DUP4 DUP4 ADD MSTORE POP POP POP JUMP JUMPDEST PUSH0 PUSH1 0x1F NOT PUSH1 0x1F DUP4 ADD AND SWAP1 POP SWAP2 SWAP1 POP JUMP JUMPDEST PUSH0 PUSH2 0x410 DUP3 PUSH2 0x3CE JUMP JUMPDEST PUSH2 0x41A DUP2 DUP6 PUSH2 0x3D8 JUMP JUMPDEST SWAP4 POP PUSH2 0x42A DUP2 DUP6 PUSH1 0x20 DUP7 ADD PUSH2 0x3E8 JUMP JUMPDEST PUSH2 0x433 DUP2 PUSH2 0x3F6 JUMP JUMPDEST DUP5 ADD SWAP2 POP POP SWAP3 SWAP2 POP POP JUMP JUMPDEST PUSH2 0x447 DUP2 PUSH2 0x2B2 JUMP JUMPDEST DUP3 MSTORE POP POP JUMP JUMPDEST PUSH0 DUP2 ISZERO ISZERO SWAP1 POP SWAP2 SWAP1 POP JUMP JUMPDEST PUSH2 0x461 DUP2 PUSH2 0x44D JUMP JUMPDEST DUP3 MSTORE POP POP JUMP JUMPDEST PUSH0 PUSH1 0x60 DUP3 ADD SWAP1 POP DUP2 DUP2 SUB PUSH0 DUP4 ADD MSTORE PUSH2 0x47F DUP2 DUP7 PUSH2 0x406 JUMP JUMPDEST SWAP1 POP PUSH2 0x48E PUSH1 0x20 DUP4 ADD DUP6 PUSH2 0x43E JUMP JUMPDEST PUSH2 0x49B PUSH1 0x40 DUP4 ADD DUP5 PUSH2 0x458 JUMP JUMPDEST SWAP5 SWAP4 POP POP POP POP JUMP JUMPDEST PUSH2 0x4AC DUP2 PUSH2 0x44D JUMP JUMPDEST DUP2 EQ PUSH2 0x4B6 JUMPI PUSH0 DUP1 REVERT JUMPDEST POP JUMP JUMPDEST PUSH0 DUP2 CALLDATALOAD SWAP1 POP PUSH2 0x4C7 DUP2 PUSH2 0x4A3 JUMP JUMPDEST SWAP3 SWAP2 POP POP JUMP JUMPDEST PUSH0 DUP1 PUSH0 DUP1 PUSH1 0x60 DUP6 DUP8 SUB SLT ISZERO PUSH2 0x4E5 JUMPI PUSH2 0x4E4 PUSH2 0x2AA JUMP JUMPDEST JUMPDEST PUSH0 DUP6 ADD CALLDATALOAD PUSH8 0xFFFFFFFFFFFFFFFF DUP2 GT ISZERO PUSH2 0x502 JUMPI PUSH2 0x501 PUSH2 0x2AE JUMP JUMPDEST JUMPDEST PUSH2 0x50E DUP8 DUP3 DUP9 ADD PUSH2 0x2F1 JUMP JUMPDEST SWAP5 POP SWAP5 POP POP PUSH1 0x20 PUSH2 0x521 DUP8 DUP3 DUP9 ADD PUSH2 0x2D1 JUMP JUMPDEST SWAP3 POP POP PUSH1 0x40 PUSH2 0x532 DUP8 DUP3 DUP9 ADD PUSH2 0x4B9 JUMP JUMPDEST SWAP2 POP POP SWAP3 SWAP6 SWAP2 SWAP5 POP SWAP3 POP JUMP JUMPDEST PUSH32 0x4E487B7100000000000000000000000000000000000000000000000000000000 PUSH0 MSTORE PUSH1 0x32 PUSH1 0x4 MSTORE PUSH1 0x24 PUSH0 REVERT JUMPDEST PUSH0 DUP3 SWAP1 POP SWAP3 SWAP2 POP POP JUMP JUMPDEST PUSH32 0x4E487B7100000000000000000000000000000000000000000000000000000000 PUSH0 MSTORE PUSH1 0x41 PUSH1 0x4 MSTORE PUSH1 0x24 PUSH0 REVERT JUMPDEST PUSH32 0x4E487B7100000000000000000000000000000000000000000000000000000000 PUSH0 MSTORE PUSH1 0x22 PUSH1 0x4 MSTORE PUSH1 0x24 PUSH0 REVERT JUMPDEST PUSH0 PUSH1 0x2 DUP3 DIV SWAP1 POP PUSH1 0x1 DUP3 AND DUP1 PUSH2 0x5E6 JUMPI PUSH1 0x7F DUP3 AND SWAP2 POP JUMPDEST PUSH1 0x20 DUP3 LT DUP2 SUB PUSH2 0x5F9 JUMPI PUSH2 0x5F8 PUSH2 0x5A2 JUMP JUMPDEST JUMPDEST POP SWAP2 SWAP1 POP JUMP JUMPDEST PUSH0 DUP2 SWAP1 POP DUP2 PUSH0 MSTORE PUSH1 0x20 PUSH0 KECCAK256 SWAP1 POP SWAP2 SWAP1 POP JUMP JUMPDEST PUSH0 PUSH1 0x20 PUSH1 0x1F DUP4 ADD DIV SWAP1 POP SWAP2 SWAP1 POP JUMP JUMPDEST PUSH0 DUP3 DUP3 SHL SWAP1 POP SWAP3 SWAP2 POP POP JUMP JUMPDEST PUSH0 PUSH1 0x8 DUP4 MUL PUSH2 0x65B PUSH32 0xFFFFFFFFFFFFFFFFFFFFFFFFFFFFFFFFFFFFFFFFFFFFFFFFFFFFFFFFFFFFFFFF DUP3 PUSH2 0x620 JUMP JUMPDEST PUSH2 0x665 DUP7 DUP4 PUSH2 0x620 JUMP JUMPDEST SWAP6 POP DUP1 NOT DUP5 AND SWAP4 POP DUP1 DUP7 AND DUP5 OR SWAP3 POP POP POP SWAP4 SWAP3 POP POP POP JUMP JUMPDEST PUSH0 DUP2 SWAP1 POP SWAP2 SWAP1 POP JUMP JUMPDEST PUSH0 PUSH2 0x6A0 PUSH2 0x69B PUSH2 0x696 DUP5 PUSH2 0x2B2 JUMP JUMPDEST PUSH2 0x67D JUMP JUMPDEST PUSH2 0x2B2 JUMP JUMPDEST SWAP1 POP SWAP2 SWAP1 POP JUMP JUMPDEST PUSH0 DUP2 SWAP1 POP SWAP2 SWAP1 POP JUMP JUMPDEST PUSH2 0x6B9 DUP4 PUSH2 0x686 JUMP JUMPDEST PUSH2 0x6CD PUSH2 0x6C5 DUP3 PUSH2 0x6A7 JUMP JUMPDEST DUP5 DUP5 SLOAD PUSH2 0x62C JUMP JUMPDEST DUP3 SSTORE POP POP POP POP JUMP JUMPDEST PUSH0 SWAP1 JUMP JUMPDEST PUSH2 0x6E1 PUSH2 0x6D5 JUMP JUMPDEST PUSH2 0x6EC DUP2 DUP5 DUP5 PUSH2 0x6B0 JUMP JUMPDEST POP POP POP JUMP JUMPDEST JUMPDEST DUP2 DUP2 LT ISZERO PUSH2 0x70F JUMPI PUSH2 0x704 PUSH0 DUP3 PUSH2 0x6D9 JUMP JUMPDEST PUSH1 0x1 DUP2 ADD SWAP1 POP PUSH2 0x6F2 JUMP JUMPDEST POP POP JUMP JUMPDEST PUSH1 0x1F DUP3 GT ISZERO PUSH2 0x754 JUMPI PUSH2 0x725 DUP2 PUSH2 0x5FF JUMP JUMPDEST PUSH2 0x72E DUP5 PUSH2 0x611 JUMP JUMPDEST DUP2 ADD PUSH1 0x20 DUP6 LT ISZERO PUSH2 0x73D JUMPI DUP2 SWAP1 POP JUMPDEST PUSH2 0x751 PUSH2 0x749 DUP6 PUSH2 0x611 JUMP JUMPDEST DUP4 ADD DUP3 PUSH2 0x6F1 JUMP JUMPDEST POP POP JUMPDEST POP POP POP JUMP JUMPDEST PUSH0 DUP3 DUP3 SHR SWAP1 POP SWAP3 SWAP2 POP POP JUMP JUMPDEST PUSH0 PUSH2 0x774 PUSH0 NOT DUP5 PUSH1 0x8 MUL PUSH2 0x759 JUMP JUMPDEST NOT DUP1 DUP4 AND SWAP2 POP POP SWAP3 SWAP2 POP POP JUMP JUMPDEST PUSH0 PUSH2 0x78C DUP4 DUP4 PUSH2 0x765 JUMP JUMPDEST SWAP2 POP DUP3 PUSH1 0x2 MUL DUP3 OR SWAP1 POP SWAP3 SWAP2 POP POP JUMP JUMPDEST PUSH2 0x7A6 DUP4 DUP4 PUSH2 0x56B JUMP JUMPDEST PUSH8 0xFFFFFFFFFFFFFFFF DUP2 GT ISZERO PUSH2 0x7BF JUMPI PUSH2 0x7BE PUSH2 0x575 JUMP JUMPDEST JUMPDEST PUSH2 0x7C9 DUP3 SLOAD PUSH2 0x5CF JUMP JUMPDEST PUSH2 0x7D4 DUP3 DUP3 DUP6 PUSH2 0x713 JUMP JUMPDEST PUSH0 PUSH1 0x1F DUP4 GT PUSH1 0x1 DUP2 EQ PUSH2 0x801 JUMPI PUSH0 DUP5 ISZERO PUSH2 0x7EF JUMPI DUP3 DUP8 ADD CALLDATALOAD SWAP1 POP JUMPDEST PUSH2 0x7F9 DUP6 DUP3 PUSH2 0x781 JUMP JUMPDEST DUP7 SSTORE POP PUSH2 0x860 JUMP JUMPDEST PUSH1 0x1F NOT DUP5 AND PUSH2 0x80F DUP7 PUSH2 0x5FF JUMP JUMPDEST PUSH0 JUMPDEST DUP3 DUP2 LT ISZERO PUSH2 0x836 JUMPI DUP5 DUP10 ADD CALLDATALOAD DUP3 SSTORE PUSH1 0x1 DUP3 ADD SWAP2 POP PUSH1 0x20 DUP6 ADD SWAP5 POP PUSH1 0x20 DUP2 ADD SWAP1 POP PUSH2 0x811 JUMP JUMPDEST DUP7 DUP4 LT ISZERO PUSH2 0x853 JUMPI DUP5 DUP10 ADD CALLDATALOAD PUSH2 0x84F PUSH1 0x1F DUP10 AND DUP3 PUSH2 0x765 JUMP JUMPDEST DUP4 SSTORE POP JUMPDEST PUSH1 0x1 PUSH1 0x2 DUP9 MUL ADD DUP9 SSTORE POP POP POP JUMPDEST POP POP POP POP POP POP POP JUMP JUMPDEST PUSH2 0x872 DUP3 PUSH2 0x3CE JUMP JUMPDEST PUSH8 0xFFFFFFFFFFFFFFFF DUP2 GT ISZERO PUSH2 0x88B JUMPI PUSH2 0x88A PUSH2 0x575 JUMP JUMPDEST JUMPDEST PUSH2 0x895 DUP3 SLOAD PUSH2 0x5CF JUMP JUMPDEST PUSH2 0x8A0 DUP3 DUP3 DUP6 PUSH2 0x713 JUMP JUMPDEST PUSH0 PUSH1 0x20 SWAP1 POP PUSH1 0x1F DUP4 GT PUSH1 0x1 DUP2 EQ PUSH2 0x8D1 JUMPI PUSH0 DUP5 ISZERO PUSH2 0x8BF JUMPI DUP3 DUP8 ADD MLOAD SWAP1 POP JUMPDEST PUSH2 0x8C9 DUP6 DUP3 PUSH2 0x781 JUMP JUMPDEST DUP7 SSTORE POP PUSH2 0x930 JUMP JUMPDEST PUSH1 0x1F NOT DUP5 AND PUSH2 0x8DF DUP7 PUSH2 0x5FF JUMP JUMPDEST PUSH0 JUMPDEST DUP3 DUP2 LT ISZERO PUSH2 0x906 JUMPI DUP5 DUP10 ADD MLOAD DUP3 SSTORE PUSH1 0x1 DUP3 ADD SWAP2 POP PUSH1 0x20 DUP6 ADD SWAP5 POP PUSH1 0x20 DUP2 ADD SWAP1 POP PUSH2 0x8E1 JUMP JUMPDEST DUP7 DUP4 LT ISZERO PUSH2 0x923 JUMPI DUP5 DUP10 ADD MLOAD PUSH2 0x91F PUSH1 0x1F DUP10 AND DUP3 PUSH2 0x765 JUMP JUMPDEST DUP4 SSTORE POP JUMPDEST PUSH1 0x1 PUSH1 0x2 DUP9 MUL ADD DUP9 SSTORE POP POP POP JUMPDEST POP POP POP POP POP POP JUMP INVALID LOG2 PUSH5 0x6970667358 0x22 SLT KECCAK256 LOG2 0xA9 0xAB KECCAK256 MOD SWAP7 0xBD PUSH16 0xC01D4D31264593C4878FDC7C50DE26ED ORIGIN PUSH14 0x1C96A78672D64736F6C63430008 BYTE STOP CALLER "
				},
				"gasEstimates": {
					"creation": {
						"codeDepositCost": "482800",
						"executionCost": "516",
						"totalCost": "483316"
					},
					"external": {
						"set(string,uint256,bool)": "infinite",
						"stu(uint256)": "infinite",
						"updateName(uint256,string)": "infinite"
					}
				},
				"methodIdentifiers": {
					"set(string,uint256,bool)": "a6551d4b",
					"stu(uint256)": "8c53f85f",
					"updateName(uint256,string)": "53e76f2c"
				}
			},
			"storageLayout": {
				"storage": [
					{
						"astId": 12,
						"contract": "contracts/solidity_by_example/017Struct.sol:StutdentsStruct",
						"label": "stu",
						"offset": 0,
						"slot": "0",
						"type": "t_array(t_struct(Student)8_storage)dyn_storage"
					}
				],
				"types": {
					"t_array(t_struct(Student)8_storage)dyn_storage": {
						"base": "t_struct(Student)8_storage",
						"encoding": "dynamic_array",
						"label": "struct StutdentsStruct.Student[]",
						"numberOfBytes": "32"
					},
					"t_bool": {
						"encoding": "inplace",
						"label": "bool",
						"numberOfBytes": "1"
					},
					"t_string_storage": {
						"encoding": "bytes",
						"label": "string",
						"numberOfBytes": "32"
					},
					"t_struct(Student)8_storage": {
						"encoding": "inplace",
						"label": "struct StutdentsStruct.Student",
						"members": [
							{
								"astId": 3,
								"contract": "contracts/solidity_by_example/017Struct.sol:StutdentsStruct",
								"label": "name",
								"offset": 0,
								"slot": "0",
								"type": "t_string_storage"
							},
							{
								"astId": 5,
								"contract": "contracts/solidity_by_example/017Struct.sol:StutdentsStruct",
								"label": "grade",
								"offset": 0,
								"slot": "1",
								"type": "t_uint256"
							},
							{
								"astId": 7,
								"contract": "contracts/solidity_by_example/017Struct.sol:StutdentsStruct",
								"label": "pass",
								"offset": 0,
								"slot": "2",
								"type": "t_bool"
							}
						],
						"numberOfBytes": "96"
					},
					"t_uint256": {
						"encoding": "inplace",
						"label": "uint256",
						"numberOfBytes": "32"
					}
				}
			},
			"userdoc": {
				"kind": "user",
				"methods": {},
				"version": 1
			}
		}
	}
}